{
  "_format": "hh-sol-artifact-1",
  "contractName": "NftERC721",
  "sourceName": "contracts/NftERC721.sol",
  "abi": [
    {
      "inputs": [
        {
          "internalType": "string",
          "name": "_collectionName",
          "type": "string"
        },
        {
          "internalType": "string",
          "name": "_token",
          "type": "string"
        }
      ],
      "stateMutability": "payable",
      "type": "constructor"
    },
    {
      "anonymous": false,
      "inputs": [
        {
          "indexed": true,
          "internalType": "address",
          "name": "owner",
          "type": "address"
        },
        {
          "indexed": true,
          "internalType": "address",
          "name": "approved",
          "type": "address"
        },
        {
          "indexed": true,
          "internalType": "uint256",
          "name": "tokenId",
          "type": "uint256"
        }
      ],
      "name": "Approval",
      "type": "event"
    },
    {
      "anonymous": false,
      "inputs": [
        {
          "indexed": true,
          "internalType": "address",
          "name": "owner",
          "type": "address"
        },
        {
          "indexed": true,
          "internalType": "address",
          "name": "operator",
          "type": "address"
        },
        {
          "indexed": false,
          "internalType": "bool",
          "name": "approved",
          "type": "bool"
        }
      ],
      "name": "ApprovalForAll",
      "type": "event"
    },
    {
      "anonymous": false,
      "inputs": [
        {
          "indexed": false,
          "internalType": "bool",
          "name": "isMinted",
          "type": "bool"
        }
      ],
      "name": "NftMinted",
      "type": "event"
    },
    {
      "anonymous": false,
      "inputs": [
        {
          "indexed": false,
          "internalType": "bool",
          "name": "isMinted",
          "type": "bool"
        }
      ],
      "name": "NftTransferred",
      "type": "event"
    },
    {
      "anonymous": false,
      "inputs": [
        {
          "indexed": true,
          "internalType": "bytes32",
          "name": "role",
          "type": "bytes32"
        },
        {
          "indexed": true,
          "internalType": "bytes32",
          "name": "previousAdminRole",
          "type": "bytes32"
        },
        {
          "indexed": true,
          "internalType": "bytes32",
          "name": "newAdminRole",
          "type": "bytes32"
        }
      ],
      "name": "RoleAdminChanged",
      "type": "event"
    },
    {
      "anonymous": false,
      "inputs": [
        {
          "indexed": true,
          "internalType": "bytes32",
          "name": "role",
          "type": "bytes32"
        },
        {
          "indexed": true,
          "internalType": "address",
          "name": "account",
          "type": "address"
        },
        {
          "indexed": true,
          "internalType": "address",
          "name": "sender",
          "type": "address"
        }
      ],
      "name": "RoleGranted",
      "type": "event"
    },
    {
      "anonymous": false,
      "inputs": [
        {
          "indexed": true,
          "internalType": "bytes32",
          "name": "role",
          "type": "bytes32"
        },
        {
          "indexed": true,
          "internalType": "address",
          "name": "account",
          "type": "address"
        },
        {
          "indexed": true,
          "internalType": "address",
          "name": "sender",
          "type": "address"
        }
      ],
      "name": "RoleRevoked",
      "type": "event"
    },
    {
      "anonymous": false,
      "inputs": [
        {
          "indexed": true,
          "internalType": "address",
          "name": "from",
          "type": "address"
        },
        {
          "indexed": true,
          "internalType": "address",
          "name": "to",
          "type": "address"
        },
        {
          "indexed": true,
          "internalType": "uint256",
          "name": "tokenId",
          "type": "uint256"
        }
      ],
      "name": "Transfer",
      "type": "event"
    },
    {
      "inputs": [
        {
          "internalType": "uint256",
          "name": "tokenId",
          "type": "uint256"
        }
      ],
      "name": "BurnNft",
      "outputs": [],
      "stateMutability": "nonpayable",
      "type": "function"
    },
    {
      "inputs": [],
      "name": "DEFAULT_ADMIN_ROLE",
      "outputs": [
        {
          "internalType": "bytes32",
          "name": "",
          "type": "bytes32"
        }
      ],
      "stateMutability": "view",
      "type": "function"
    },
    {
      "inputs": [],
      "name": "LEADER_ROLE",
      "outputs": [
        {
          "internalType": "bytes32",
          "name": "",
          "type": "bytes32"
        }
      ],
      "stateMutability": "view",
      "type": "function"
    },
    {
      "inputs": [],
      "name": "MEMBER_ROLE",
      "outputs": [
        {
          "internalType": "bytes32",
          "name": "",
          "type": "bytes32"
        }
      ],
      "stateMutability": "view",
      "type": "function"
    },
    {
      "inputs": [
        {
          "internalType": "uint256",
          "name": "tokenId",
          "type": "uint256"
        }
      ],
      "name": "activityOwnerOf",
      "outputs": [
        {
          "internalType": "address",
          "name": "",
          "type": "address"
        }
      ],
      "stateMutability": "view",
      "type": "function"
    },
    {
      "inputs": [
        {
          "internalType": "address",
          "name": "to",
          "type": "address"
        },
        {
          "internalType": "uint256",
          "name": "tokenId",
          "type": "uint256"
        }
      ],
      "name": "approve",
      "outputs": [],
      "stateMutability": "nonpayable",
      "type": "function"
    },
    {
      "inputs": [
        {
          "internalType": "address",
          "name": "from",
          "type": "address"
        },
        {
          "components": [
            {
              "internalType": "uint256",
              "name": "tokenId",
              "type": "uint256"
            },
            {
              "internalType": "uint256",
              "name": "amount",
              "type": "uint256"
            },
            {
              "internalType": "address",
              "name": "to",
              "type": "address"
            }
          ],
          "internalType": "struct NftERC721.ApprovementInfo",
          "name": "_txn",
          "type": "tuple"
        },
        {
          "internalType": "uint256",
          "name": "_nonce",
          "type": "uint256"
        },
        {
          "internalType": "bytes[]",
          "name": "_multiSignature",
          "type": "bytes[]"
        }
      ],
      "name": "approveActivity",
      "outputs": [],
      "stateMutability": "nonpayable",
      "type": "function"
    },
    {
      "inputs": [
        {
          "internalType": "address",
          "name": "owner",
          "type": "address"
        }
      ],
      "name": "balanceOf",
      "outputs": [
        {
          "internalType": "uint256",
          "name": "",
          "type": "uint256"
        }
      ],
      "stateMutability": "view",
      "type": "function"
    },
    {
      "inputs": [
        {
          "internalType": "address",
          "name": "account",
          "type": "address"
        }
      ],
      "name": "checkAddressLeader",
      "outputs": [
        {
          "internalType": "bool",
          "name": "",
          "type": "bool"
        }
      ],
      "stateMutability": "view",
      "type": "function"
    },
    {
      "inputs": [
        {
          "internalType": "address",
          "name": "account",
          "type": "address"
        }
      ],
      "name": "checkAddressMember",
      "outputs": [
        {
          "internalType": "bool",
          "name": "",
          "type": "bool"
        }
      ],
      "stateMutability": "view",
      "type": "function"
    },
    {
      "inputs": [
        {
          "internalType": "uint256",
          "name": "tokenId",
          "type": "uint256"
        }
      ],
      "name": "getActivity",
      "outputs": [
        {
          "components": [
            {
              "internalType": "uint256",
              "name": "tokenId",
              "type": "uint256"
            },
            {
              "internalType": "string",
              "name": "status",
              "type": "string"
            },
            {
              "internalType": "string",
              "name": "tokenUri",
              "type": "string"
            },
            {
              "internalType": "uint256",
              "name": "reward",
              "type": "uint256"
            }
          ],
          "internalType": "struct NftERC721.Activity",
          "name": "",
          "type": "tuple"
        }
      ],
      "stateMutability": "view",
      "type": "function"
    },
    {
      "inputs": [
        {
          "internalType": "uint256",
          "name": "tokenId",
          "type": "uint256"
        }
      ],
      "name": "getApproved",
      "outputs": [
        {
          "internalType": "address",
          "name": "",
          "type": "address"
        }
      ],
      "stateMutability": "view",
      "type": "function"
    },
    {
      "inputs": [
        {
          "internalType": "bytes32",
          "name": "role",
          "type": "bytes32"
        }
      ],
      "name": "getRoleAdmin",
      "outputs": [
        {
          "internalType": "bytes32",
          "name": "",
          "type": "bytes32"
        }
      ],
      "stateMutability": "view",
      "type": "function"
    },
    {
      "inputs": [
        {
          "internalType": "bytes32",
          "name": "role",
          "type": "bytes32"
        },
        {
          "internalType": "address",
          "name": "account",
          "type": "address"
        }
      ],
      "name": "grantRole",
      "outputs": [],
      "stateMutability": "nonpayable",
      "type": "function"
    },
    {
      "inputs": [
        {
          "internalType": "bytes32",
          "name": "role",
          "type": "bytes32"
        },
        {
          "internalType": "address",
          "name": "account",
          "type": "address"
        }
      ],
      "name": "hasRole",
      "outputs": [
        {
          "internalType": "bool",
          "name": "",
          "type": "bool"
        }
      ],
      "stateMutability": "view",
      "type": "function"
    },
    {
      "inputs": [],
      "name": "idCounter",
      "outputs": [
        {
          "internalType": "uint256",
          "name": "",
          "type": "uint256"
        }
      ],
      "stateMutability": "view",
      "type": "function"
    },
    {
      "inputs": [
        {
          "internalType": "address",
          "name": "owner",
          "type": "address"
        },
        {
          "internalType": "address",
          "name": "operator",
          "type": "address"
        }
      ],
      "name": "isApprovedForAll",
      "outputs": [
        {
          "internalType": "bool",
          "name": "",
          "type": "bool"
        }
      ],
      "stateMutability": "view",
      "type": "function"
    },
    {
      "inputs": [
        {
          "internalType": "uint256",
          "name": "tokenId",
          "type": "uint256"
        }
      ],
      "name": "isAvailableActivity",
      "outputs": [
        {
          "internalType": "bool",
          "name": "",
          "type": "bool"
        }
      ],
      "stateMutability": "view",
      "type": "function"
    },
    {
      "inputs": [],
      "name": "lastMinted",
      "outputs": [
        {
          "internalType": "string",
          "name": "",
          "type": "string"
        }
      ],
      "stateMutability": "view",
      "type": "function"
    },
    {
      "inputs": [],
      "name": "name",
      "outputs": [
        {
          "internalType": "string",
          "name": "",
          "type": "string"
        }
      ],
      "stateMutability": "view",
      "type": "function"
    },
    {
      "inputs": [],
      "name": "nonce",
      "outputs": [
        {
          "internalType": "uint256",
          "name": "",
          "type": "uint256"
        }
      ],
      "stateMutability": "view",
      "type": "function"
    },
    {
      "inputs": [
        {
          "internalType": "address",
          "name": "",
          "type": "address"
        },
        {
          "internalType": "address",
          "name": "",
          "type": "address"
        },
        {
          "internalType": "uint256",
          "name": "",
          "type": "uint256"
        },
        {
          "internalType": "bytes",
          "name": "",
          "type": "bytes"
        }
      ],
      "name": "onERC721Received",
      "outputs": [
        {
          "internalType": "bytes4",
          "name": "",
          "type": "bytes4"
        }
      ],
      "stateMutability": "pure",
      "type": "function"
    },
    {
      "inputs": [],
      "name": "owner",
      "outputs": [
        {
          "internalType": "address",
          "name": "",
          "type": "address"
        }
      ],
      "stateMutability": "view",
      "type": "function"
    },
    {
      "inputs": [
        {
          "internalType": "uint256",
          "name": "tokenId",
          "type": "uint256"
        }
      ],
      "name": "ownerOf",
      "outputs": [
        {
          "internalType": "address",
          "name": "",
          "type": "address"
        }
      ],
      "stateMutability": "view",
      "type": "function"
    },
    {
      "inputs": [
        {
          "internalType": "bytes32",
          "name": "role",
          "type": "bytes32"
        },
        {
          "internalType": "address",
          "name": "account",
          "type": "address"
        }
      ],
      "name": "renounceRole",
      "outputs": [],
      "stateMutability": "nonpayable",
      "type": "function"
    },
    {
      "inputs": [
        {
          "internalType": "bytes32",
          "name": "role",
          "type": "bytes32"
        },
        {
          "internalType": "address",
          "name": "account",
          "type": "address"
        }
      ],
      "name": "revokeRole",
      "outputs": [],
      "stateMutability": "nonpayable",
      "type": "function"
    },
    {
      "inputs": [
        {
          "internalType": "address",
          "name": "to",
          "type": "address"
        },
        {
          "internalType": "string",
          "name": "ipfsUri",
          "type": "string"
        }
      ],
      "name": "safeMint",
      "outputs": [],
      "stateMutability": "payable",
      "type": "function"
    },
    {
      "inputs": [
        {
          "internalType": "address",
          "name": "from",
          "type": "address"
        },
        {
          "internalType": "address",
          "name": "to",
          "type": "address"
        },
        {
          "internalType": "uint256",
          "name": "tokenId",
          "type": "uint256"
        }
      ],
      "name": "safeTransferFrom",
      "outputs": [],
      "stateMutability": "nonpayable",
      "type": "function"
    },
    {
      "inputs": [
        {
          "internalType": "address",
          "name": "from",
          "type": "address"
        },
        {
          "internalType": "address",
          "name": "to",
          "type": "address"
        },
        {
          "internalType": "uint256",
          "name": "tokenId",
          "type": "uint256"
        },
        {
          "internalType": "bytes",
          "name": "data",
          "type": "bytes"
        }
      ],
      "name": "safeTransferFrom",
      "outputs": [],
      "stateMutability": "nonpayable",
      "type": "function"
    },
    {
      "inputs": [
        {
          "internalType": "uint256",
          "name": "tokenId",
          "type": "uint256"
        },
        {
          "internalType": "address",
          "name": "to",
          "type": "address"
        }
      ],
      "name": "setActivityOwner",
      "outputs": [],
      "stateMutability": "nonpayable",
      "type": "function"
    },
    {
      "inputs": [
        {
          "internalType": "address",
          "name": "operator",
          "type": "address"
        },
        {
          "internalType": "bool",
          "name": "approved",
          "type": "bool"
        }
      ],
      "name": "setApprovalForAll",
      "outputs": [],
      "stateMutability": "nonpayable",
      "type": "function"
    },
    {
      "inputs": [
        {
          "internalType": "bytes4",
          "name": "interfaceId",
          "type": "bytes4"
        }
      ],
      "name": "supportsInterface",
      "outputs": [
        {
          "internalType": "bool",
          "name": "",
          "type": "bool"
        }
      ],
      "stateMutability": "view",
      "type": "function"
    },
    {
      "inputs": [],
      "name": "symbol",
      "outputs": [
        {
          "internalType": "string",
          "name": "",
          "type": "string"
        }
      ],
      "stateMutability": "view",
      "type": "function"
    },
    {
      "inputs": [],
      "name": "tokenIdCounter",
      "outputs": [
        {
          "internalType": "uint256",
          "name": "_value",
          "type": "uint256"
        }
      ],
      "stateMutability": "view",
      "type": "function"
    },
    {
      "inputs": [
        {
          "internalType": "uint256",
          "name": "tokenId",
          "type": "uint256"
        }
      ],
      "name": "tokenURI",
      "outputs": [
        {
          "internalType": "string",
          "name": "",
          "type": "string"
        }
      ],
      "stateMutability": "view",
      "type": "function"
    },
    {
      "inputs": [
        {
          "internalType": "address",
          "name": "from",
          "type": "address"
        },
        {
          "internalType": "address",
          "name": "to",
          "type": "address"
        },
        {
          "internalType": "uint256",
          "name": "tokenId",
          "type": "uint256"
        }
      ],
      "name": "transferFrom",
      "outputs": [],
      "stateMutability": "nonpayable",
      "type": "function"
    },
    {
      "inputs": [
        {
          "internalType": "address",
          "name": "from",
          "type": "address"
        },
        {
          "internalType": "address",
          "name": "_to",
          "type": "address"
        },
        {
          "internalType": "uint256",
          "name": "_tokenId",
          "type": "uint256"
        }
      ],
      "name": "transferNFTWithETH",
      "outputs": [],
      "stateMutability": "payable",
      "type": "function"
    },
    {
      "stateMutability": "payable",
      "type": "receive"
    }
  ],
  "bytecode": "0x608060405260405162005c2938038062005c29833981810160405281019062000029919062000499565b81818160009080519060200190620000439291906200024c565b5080600190805190602001906200005c9291906200024c565b5050506002600a8190555033600d60006101000a81548173ffffffffffffffffffffffffffffffffffffffff021916908373ffffffffffffffffffffffffffffffffffffffff160217905550620000df6000801b600d60009054906101000a900473ffffffffffffffffffffffffffffffffffffffff16620000e760201b60201c565b505062000583565b620000f98282620001d960201b60201c565b620001d55760016007600084815260200190815260200160002060000160008373ffffffffffffffffffffffffffffffffffffffff1673ffffffffffffffffffffffffffffffffffffffff16815260200190815260200160002060006101000a81548160ff0219169083151502179055506200017a6200024460201b60201c565b73ffffffffffffffffffffffffffffffffffffffff168173ffffffffffffffffffffffffffffffffffffffff16837f2f8788117e7eff1d82e926ec794901d17c78024a50270940304540a733656f0d60405160405180910390a45b5050565b60006007600084815260200190815260200160002060000160008373ffffffffffffffffffffffffffffffffffffffff1673ffffffffffffffffffffffffffffffffffffffff16815260200190815260200160002060009054906101000a900460ff16905092915050565b600033905090565b8280546200025a906200054d565b90600052602060002090601f0160209004810192826200027e5760008555620002ca565b82601f106200029957805160ff1916838001178555620002ca565b82800160010185558215620002ca579182015b82811115620002c9578251825591602001919060010190620002ac565b5b509050620002d99190620002dd565b5090565b5b80821115620002f8576000816000905550600101620002de565b5090565b6000604051905090565b600080fd5b600080fd5b600080fd5b600080fd5b6000601f19601f8301169050919050565b7f4e487b7100000000000000000000000000000000000000000000000000000000600052604160045260246000fd5b62000365826200031a565b810181811067ffffffffffffffff821117156200038757620003866200032b565b5b80604052505050565b60006200039c620002fc565b9050620003aa82826200035a565b919050565b600067ffffffffffffffff821115620003cd57620003cc6200032b565b5b620003d8826200031a565b9050602081019050919050565b60005b8381101562000405578082015181840152602081019050620003e8565b8381111562000415576000848401525b50505050565b6000620004326200042c84620003af565b62000390565b90508281526020810184848401111562000451576200045062000315565b5b6200045e848285620003e5565b509392505050565b600082601f8301126200047e576200047d62000310565b5b8151620004908482602086016200041b565b91505092915050565b60008060408385031215620004b357620004b262000306565b5b600083015167ffffffffffffffff811115620004d457620004d36200030b565b5b620004e28582860162000466565b925050602083015167ffffffffffffffff8111156200050657620005056200030b565b5b620005148582860162000466565b9150509250929050565b7f4e487b7100000000000000000000000000000000000000000000000000000000600052602260045260246000fd5b600060028204905060018216806200056657607f821691505b602082108114156200057d576200057c6200051e565b5b50919050565b61569680620005936000396000f3fe60806040526004361061021e5760003560e01c8063922635d811610123578063bbc19ab0116100ab578063d93f4d231161006f578063d93f4d2314610832578063e035f4841461085b578063e34a9d4914610884578063e985e9c5146108c1578063eb08ab28146108fe57610225565b8063bbc19ab014610769578063c87b56dd14610794578063c9e65b84146107d1578063d204c45e146107ed578063d547741f1461080957610225565b8063a217fddf116100f2578063a217fddf14610696578063a22cb465146106c1578063a2e4aff0146106ea578063affed0e014610715578063b88d4fde1461074057610225565b8063922635d8146105d857806395d89b411461061557806398bdf6f514610640578063a10f469e1461066b57610225565b80632f2ff15d116101a657806363fe1f771161017557806363fe1f77146104b957806370a08231146104f65780638da5cb5b14610533578063906322c91461055e57806391d148541461059b57610225565b80632f2ff15d1461040157806336568abe1461042a57806342842e0e146104535780636352211e1461047c57610225565b8063095ea7b3116101ed578063095ea7b3146102f8578063150b7a02146103215780631d1b29bd1461035e57806323b872dd1461039b578063248a9ca3146103c457610225565b806301ffc9a71461022a5780630588fcb01461026757806306fdde0314610290578063081812fc146102bb57610225565b3661022557005b600080fd5b34801561023657600080fd5b50610251600480360381019061024c9190613809565b610929565b60405161025e9190613851565b60405180910390f35b34801561027357600080fd5b5061028e600480360381019061028991906138a2565b61093b565b005b34801561029c57600080fd5b506102a5610972565b6040516102b29190613968565b60405180910390f35b3480156102c757600080fd5b506102e260048036038101906102dd91906138a2565b610a04565b6040516102ef91906139cb565b60405180910390f35b34801561030457600080fd5b5061031f600480360381019061031a9190613a12565b610a4a565b005b34801561032d57600080fd5b5061034860048036038101906103439190613ab7565b610b62565b6040516103559190613b4e565b60405180910390f35b34801561036a57600080fd5b5061038560048036038101906103809190613b69565b610b77565b6040516103929190613851565b60405180910390f35b3480156103a757600080fd5b506103c260048036038101906103bd9190613b96565b610baa565b005b3480156103d057600080fd5b506103eb60048036038101906103e69190613c1f565b610c0b565b6040516103f89190613c5b565b60405180910390f35b34801561040d57600080fd5b5061042860048036038101906104239190613c76565b610c2b565b005b34801561043657600080fd5b50610451600480360381019061044c9190613c76565b610cd0565b005b34801561045f57600080fd5b5061047a60048036038101906104759190613b96565b610d53565b005b34801561048857600080fd5b506104a3600480360381019061049e91906138a2565b610d73565b6040516104b091906139cb565b60405180910390f35b3480156104c557600080fd5b506104e060048036038101906104db91906138a2565b610dfa565b6040516104ed9190613851565b60405180910390f35b34801561050257600080fd5b5061051d60048036038101906105189190613b69565b610e24565b60405161052a9190613cc5565b60405180910390f35b34801561053f57600080fd5b50610548610edc565b60405161055591906139cb565b60405180910390f35b34801561056a57600080fd5b5061058560048036038101906105809190613b69565b610f02565b6040516105929190613851565b60405180910390f35b3480156105a757600080fd5b506105c260048036038101906105bd9190613c76565b610f35565b6040516105cf9190613851565b60405180910390f35b3480156105e457600080fd5b506105ff60048036038101906105fa91906138a2565b610fa0565b60405161060c9190613da3565b60405180910390f35b34801561062157600080fd5b5061062a611105565b6040516106379190613968565b60405180910390f35b34801561064c57600080fd5b50610655611197565b6040516106629190613cc5565b60405180910390f35b34801561067757600080fd5b506106806111a3565b60405161068d9190613c5b565b60405180910390f35b3480156106a257600080fd5b506106ab6111c7565b6040516106b89190613c5b565b60405180910390f35b3480156106cd57600080fd5b506106e860048036038101906106e39190613df1565b6111ce565b005b3480156106f657600080fd5b506106ff6111e4565b60405161070c9190613c5b565b60405180910390f35b34801561072157600080fd5b5061072a611208565b6040516107379190613cc5565b60405180910390f35b34801561074c57600080fd5b5061076760048036038101906107629190613f61565b61120e565b005b34801561077557600080fd5b5061077e611270565b60405161078b9190613968565b60405180910390f35b3480156107a057600080fd5b506107bb60048036038101906107b691906138a2565b6112d7565b6040516107c89190613968565b60405180910390f35b6107eb60048036038101906107e69190613b96565b6112e9565b005b61080760048036038101906108029190614085565b611467565b005b34801561081557600080fd5b50610830600480360381019061082b9190613c76565b611634565b005b34801561083e57600080fd5b506108596004803603810190610854919061415b565b611655565b005b34801561086757600080fd5b50610882600480360381019061087d91906141e3565b6116d9565b005b34801561089057600080fd5b506108ab60048036038101906108a691906138a2565b611812565b6040516108b891906139cb565b60405180910390f35b3480156108cd57600080fd5b506108e860048036038101906108e39190614223565b611854565b6040516108f59190613851565b60405180910390f35b34801561090a57600080fd5b506109136118e8565b6040516109209190613cc5565b60405180910390f35b6000610934826118f9565b9050919050565b7fa870f1a91ab66a18174ae285449a007bea36a28441e5b44a847deb90f83e86eb61096581611973565b61096e82611987565b5050565b60606000805461098190614292565b80601f01602080910402602001604051908101604052809291908181526020018280546109ad90614292565b80156109fa5780601f106109cf576101008083540402835291602001916109fa565b820191906000526020600020905b8154815290600101906020018083116109dd57829003601f168201915b5050505050905090565b6000610a0f82611993565b6004600083815260200190815260200160002060009054906101000a900473ffffffffffffffffffffffffffffffffffffffff169050919050565b6000610a5582610d73565b90508073ffffffffffffffffffffffffffffffffffffffff168373ffffffffffffffffffffffffffffffffffffffff161415610ac6576040517f08c379a0000000000000000000000000000000000000000000000000000000008152600401610abd90614336565b60405180910390fd5b8073ffffffffffffffffffffffffffffffffffffffff16610ae56119de565b73ffffffffffffffffffffffffffffffffffffffff161480610b145750610b1381610b0e6119de565b611854565b5b610b53576040517f08c379a0000000000000000000000000000000000000000000000000000000008152600401610b4a906143c8565b60405180910390fd5b610b5d83836119e6565b505050565b600063150b7a0260e01b905095945050505050565b6000610ba37fa870f1a91ab66a18174ae285449a007bea36a28441e5b44a847deb90f83e86eb83610f35565b9050919050565b6000801b610bb781611973565b610bc28360016111ce565b610bcd848484611a9f565b7ff6424459656d156a32411176601baac0d0f3e7ffa29398e7cbfbab916565f1726001604051610bfd9190613851565b60405180910390a150505050565b600060076000838152602001908152602001600020600101549050919050565b610c376000801b610c0b565b610c4081611973565b7fa870f1a91ab66a18174ae285449a007bea36a28441e5b44a847deb90f83e86eb831415610cc1576001600960008473ffffffffffffffffffffffffffffffffffffffff1673ffffffffffffffffffffffffffffffffffffffff16815260200190815260200160002060006101000a81548160ff0219169083151502179055505b610ccb8383611d99565b505050565b610cd86119de565b73ffffffffffffffffffffffffffffffffffffffff168173ffffffffffffffffffffffffffffffffffffffff1614610d45576040517f08c379a0000000000000000000000000000000000000000000000000000000008152600401610d3c9061445a565b60405180910390fd5b610d4f8282611e7a565b5050565b610d6e8383836040518060200160405280600081525061120e565b505050565b600080610d7f83611f5c565b9050600073ffffffffffffffffffffffffffffffffffffffff168173ffffffffffffffffffffffffffffffffffffffff161415610df1576040517f08c379a0000000000000000000000000000000000000000000000000000000008152600401610de8906144c6565b60405180910390fd5b80915050919050565b6000600f600083815260200190815260200160002060009054906101000a900460ff169050919050565b60008073ffffffffffffffffffffffffffffffffffffffff168273ffffffffffffffffffffffffffffffffffffffff161415610e95576040517f08c379a0000000000000000000000000000000000000000000000000000000008152600401610e8c90614558565b60405180910390fd5b600360008373ffffffffffffffffffffffffffffffffffffffff1673ffffffffffffffffffffffffffffffffffffffff168152602001908152602001600020549050919050565b600d60009054906101000a900473ffffffffffffffffffffffffffffffffffffffff1681565b6000610f2e7f829b824e2329e205435d941c9f13baf578548505283d29261236d8e6596d463683610f35565b9050919050565b60006007600084815260200190815260200160002060000160008373ffffffffffffffffffffffffffffffffffffffff1673ffffffffffffffffffffffffffffffffffffffff16815260200190815260200160002060009054906101000a900460ff16905092915050565b610fa8613692565b600e600083815260200190815260200160002060405180608001604052908160008201548152602001600182018054610fe090614292565b80601f016020809104026020016040519081016040528092919081815260200182805461100c90614292565b80156110595780601f1061102e57610100808354040283529160200191611059565b820191906000526020600020905b81548152906001019060200180831161103c57829003601f168201915b5050505050815260200160028201805461107290614292565b80601f016020809104026020016040519081016040528092919081815260200182805461109e90614292565b80156110eb5780601f106110c0576101008083540402835291602001916110eb565b820191906000526020600020905b8154815290600101906020018083116110ce57829003601f168201915b505050505081526020016003820154815250509050919050565b60606001805461111490614292565b80601f016020809104026020016040519081016040528092919081815260200182805461114090614292565b801561118d5780601f106111625761010080835404028352916020019161118d565b820191906000526020600020905b81548152906001019060200180831161117057829003601f168201915b5050505050905090565b600c8060000154905081565b7f829b824e2329e205435d941c9f13baf578548505283d29261236d8e6596d463681565b6000801b81565b6111e06111d96119de565b8383611f99565b5050565b7fa870f1a91ab66a18174ae285449a007bea36a28441e5b44a847deb90f83e86eb81565b60085481565b61121f6112196119de565b83612106565b61125e576040517f08c379a0000000000000000000000000000000000000000000000000000000008152600401611255906145ea565b60405180910390fd5b61126a8484848461219b565b50505050565b6060600061127e600c6121f7565b905060008114156112a157604051806020016040528060008152509150506112d4565b60008111156112c7576112bf6001826112ba9190614639565b6112d7565b9150506112d4565b6112d0816112d7565b9150505b90565b60606112e282612205565b9050919050565b8273ffffffffffffffffffffffffffffffffffffffff1661130982610d73565b73ffffffffffffffffffffffffffffffffffffffff161461135f576040517f08c379a0000000000000000000000000000000000000000000000000000000008152600401611356906146df565b60405180910390fd5b600034116113a2576040517f08c379a000000000000000000000000000000000000000000000000000000000815260040161139990614771565b60405180910390fd5b6113ad338383610baa565b60006113b882610d73565b73ffffffffffffffffffffffffffffffffffffffff16346040516113db906147c2565b60006040518083038185875af1925050503d8060008114611418576040519150601f19603f3d011682016040523d82523d6000602084013e61141d565b606091505b5050905080611461576040517f08c379a000000000000000000000000000000000000000000000000000000000815260040161145890614823565b60405180910390fd5b50505050565b7fa870f1a91ab66a18174ae285449a007bea36a28441e5b44a847deb90f83e86eb61149181611973565b60013410156114d5576040517f08c379a00000000000000000000000000000000000000000000000000000000081526004016114cc906148b5565b60405180910390fd5b60006114e1600c6121f7565b90506114ed600c612318565b6114f7848261232e565b611501818461234c565b611509613692565b818160000181815250508381604001819052506040518060400160405280600981526020017f417661696c61626c6500000000000000000000000000000000000000000000008152508160200181905250348160600181815250506001600f600084815260200190815260200160002060006101000a81548160ff02191690831515021790555080600e60008481526020019081526020016000206000820151816000015560208201518160010190805190602001906115ca9291906136ba565b5060408201518160020190805190602001906115e79291906136ba565b50606082015181600301559050507f20ca71800840a1730c265dcac5f68ec9daffe929561a6ed11f49ada5e4f7a31a60016040516116259190613851565b60405180910390a15050505050565b61163d82610c0b565b61164681611973565b6116508383611e7a565b505050565b600b60009054906101000a900460ff161561166f57600080fd5b6001600b60006101000a81548160ff021916908315150217905550611696848484846123c0565b6116b7858560400160208101906116ad9190613b69565b86600001356112e9565b6000600b60006101000a81548160ff0219169083151502179055505050505050565b600f600083815260200190815260200160002060009054906101000a900460ff16611739576040517f08c379a000000000000000000000000000000000000000000000000000000000815260040161173090614921565b60405180910390fd5b6040518060400160405280600b81526020017f496e2050726f6772657373000000000000000000000000000000000000000000815250600e600084815260200190815260200160002060010190805190602001906117989291906136ba565b50600f600083815260200190815260200160002060006101000a81549060ff0219169055806010600084815260200190815260200160002060006101000a81548173ffffffffffffffffffffffffffffffffffffffff021916908373ffffffffffffffffffffffffffffffffffffffff1602179055505050565b6000806010600084815260200190815260200160002060009054906101000a900473ffffffffffffffffffffffffffffffffffffffff16905080915050919050565b6000600560008473ffffffffffffffffffffffffffffffffffffffff1673ffffffffffffffffffffffffffffffffffffffff16815260200190815260200160002060008373ffffffffffffffffffffffffffffffffffffffff1673ffffffffffffffffffffffffffffffffffffffff16815260200190815260200160002060009054906101000a900460ff16905092915050565b60006118f4600c6121f7565b905090565b60007f7965db0b000000000000000000000000000000000000000000000000000000007bffffffffffffffffffffffffffffffffffffffffffffffffffffffff1916827bffffffffffffffffffffffffffffffffffffffffffffffffffffffff1916148061196c575061196b8261260c565b5b9050919050565b6119848161197f6119de565b6126ee565b50565b61199081612773565b50565b61199c816127c6565b6119db576040517f08c379a00000000000000000000000000000000000000000000000000000000081526004016119d2906144c6565b60405180910390fd5b50565b600033905090565b816004600083815260200190815260200160002060006101000a81548173ffffffffffffffffffffffffffffffffffffffff021916908373ffffffffffffffffffffffffffffffffffffffff160217905550808273ffffffffffffffffffffffffffffffffffffffff16611a5983610d73565b73ffffffffffffffffffffffffffffffffffffffff167f8c5be1e5ebec7d5bd14f71427d1e84f3dd0314c0f7b2291e5b200ac8c7c3b92560405160405180910390a45050565b8273ffffffffffffffffffffffffffffffffffffffff16611abf82610d73565b73ffffffffffffffffffffffffffffffffffffffff1614611b15576040517f08c379a0000000000000000000000000000000000000000000000000000000008152600401611b0c906149b3565b60405180910390fd5b600073ffffffffffffffffffffffffffffffffffffffff168273ffffffffffffffffffffffffffffffffffffffff161415611b85576040517f08c379a0000000000000000000000000000000000000000000000000000000008152600401611b7c90614a45565b60405180910390fd5b611b928383836001612807565b8273ffffffffffffffffffffffffffffffffffffffff16611bb282610d73565b73ffffffffffffffffffffffffffffffffffffffff1614611c08576040517f08c379a0000000000000000000000000000000000000000000000000000000008152600401611bff906149b3565b60405180910390fd5b6004600082815260200190815260200160002060006101000a81549073ffffffffffffffffffffffffffffffffffffffff02191690556001600360008573ffffffffffffffffffffffffffffffffffffffff1673ffffffffffffffffffffffffffffffffffffffff168152602001908152602001600020600082825403925050819055506001600360008473ffffffffffffffffffffffffffffffffffffffff1673ffffffffffffffffffffffffffffffffffffffff16815260200190815260200160002060008282540192505081905550816002600083815260200190815260200160002060006101000a81548173ffffffffffffffffffffffffffffffffffffffff021916908373ffffffffffffffffffffffffffffffffffffffff160217905550808273ffffffffffffffffffffffffffffffffffffffff168473ffffffffffffffffffffffffffffffffffffffff167fddf252ad1be2c89b69c2b068fc378daa952ba7f163c4a11628f55a4df523b3ef60405160405180910390a4611d94838383600161280d565b505050565b611da38282610f35565b611e765760016007600084815260200190815260200160002060000160008373ffffffffffffffffffffffffffffffffffffffff1673ffffffffffffffffffffffffffffffffffffffff16815260200190815260200160002060006101000a81548160ff021916908315150217905550611e1b6119de565b73ffffffffffffffffffffffffffffffffffffffff168173ffffffffffffffffffffffffffffffffffffffff16837f2f8788117e7eff1d82e926ec794901d17c78024a50270940304540a733656f0d60405160405180910390a45b5050565b611e848282610f35565b15611f585760006007600084815260200190815260200160002060000160008373ffffffffffffffffffffffffffffffffffffffff1673ffffffffffffffffffffffffffffffffffffffff16815260200190815260200160002060006101000a81548160ff021916908315150217905550611efd6119de565b73ffffffffffffffffffffffffffffffffffffffff168173ffffffffffffffffffffffffffffffffffffffff16837ff6391f5c32d9c69d2a47ea670b442974b53935d1edc7fd64eb21e047a839171b60405160405180910390a45b5050565b60006002600083815260200190815260200160002060009054906101000a900473ffffffffffffffffffffffffffffffffffffffff169050919050565b8173ffffffffffffffffffffffffffffffffffffffff168373ffffffffffffffffffffffffffffffffffffffff161415612008576040517f08c379a0000000000000000000000000000000000000000000000000000000008152600401611fff90614ab1565b60405180910390fd5b80600560008573ffffffffffffffffffffffffffffffffffffffff1673ffffffffffffffffffffffffffffffffffffffff16815260200190815260200160002060008473ffffffffffffffffffffffffffffffffffffffff1673ffffffffffffffffffffffffffffffffffffffff16815260200190815260200160002060006101000a81548160ff0219169083151502179055508173ffffffffffffffffffffffffffffffffffffffff168373ffffffffffffffffffffffffffffffffffffffff167f17307eab39ab6107e8899845ad3d59bd9653f200f220920489ca2b5937696c31836040516120f99190613851565b60405180910390a3505050565b60008061211283610d73565b90508073ffffffffffffffffffffffffffffffffffffffff168473ffffffffffffffffffffffffffffffffffffffff16148061215457506121538185611854565b5b8061219257508373ffffffffffffffffffffffffffffffffffffffff1661217a84610a04565b73ffffffffffffffffffffffffffffffffffffffff16145b91505092915050565b6121a6848484611a9f565b6121b284848484612813565b6121f1576040517f08c379a00000000000000000000000000000000000000000000000000000000081526004016121e890614b43565b60405180910390fd5b50505050565b600081600001549050919050565b606061221082611993565b600060066000848152602001908152602001600020805461223090614292565b80601f016020809104026020016040519081016040528092919081815260200182805461225c90614292565b80156122a95780601f1061227e576101008083540402835291602001916122a9565b820191906000526020600020905b81548152906001019060200180831161228c57829003601f168201915b5050505050905060006122ba6129aa565b90506000815114156122d0578192505050612313565b6000825111156123055780826040516020016122ed929190614b9f565b60405160208183030381529060405292505050612313565b61230e846129c1565b925050505b919050565b6001816000016000828254019250508190555050565b612348828260405180602001604052806000815250612a29565b5050565b612355826127c6565b612394576040517f08c379a000000000000000000000000000000000000000000000000000000000815260040161238b90614c35565b60405180910390fd5b806006600084815260200190815260200160002090805190602001906123bb9291906136ba565b505050565b6008548311612404576040517f08c379a00000000000000000000000000000000000000000000000000000000081526004016123fb90614ca1565b60405180910390fd5b6000828290509050600a54811015612451576040517f08c379a000000000000000000000000000000000000000000000000000000000815260040161244890614d0d565b60405180910390fd5b600061245d8686612a84565b9050600080600090505b838110156125fb57600086868381811061248457612483614d2d565b5b90506020028101906124969190614d6b565b8080601f016020809104026020016040519081016040528093929190818152602001838380828437600081840152601f19601f82011690508083019250505050505050905060006124e78583612b3b565b90508373ffffffffffffffffffffffffffffffffffffffff168173ffffffffffffffffffffffffffffffffffffffff1611612557576040517f08c379a000000000000000000000000000000000000000000000000000000000815260040161254e90614e1a565b60405180910390fd5b600960008273ffffffffffffffffffffffffffffffffffffffff1673ffffffffffffffffffffffffffffffffffffffff16815260200190815260200160002060009054906101000a900460ff166125e3576040517f08c379a00000000000000000000000000000000000000000000000000000000081526004016125da90614e86565b60405180910390fd5b809350505080806125f390614ea6565b915050612467565b508560088190555050505050505050565b60007f80ac58cd000000000000000000000000000000000000000000000000000000007bffffffffffffffffffffffffffffffffffffffffffffffffffffffff1916827bffffffffffffffffffffffffffffffffffffffffffffffffffffffff191614806126d757507f5b5e139f000000000000000000000000000000000000000000000000000000007bffffffffffffffffffffffffffffffffffffffffffffffffffffffff1916827bffffffffffffffffffffffffffffffffffffffffffffffffffffffff1916145b806126e757506126e682612b62565b5b9050919050565b6126f88282610f35565b61276f5761270581612bcc565b6127138360001c6020612bf9565b604051602001612724929190614f87565b6040516020818303038152906040526040517f08c379a00000000000000000000000000000000000000000000000000000000081526004016127669190613968565b60405180910390fd5b5050565b61277c81612e35565b600060066000838152602001908152602001600020805461279c90614292565b9050146127c3576006600082815260200190815260200160002060006127c29190613740565b5b50565b60008073ffffffffffffffffffffffffffffffffffffffff166127e883611f5c565b73ffffffffffffffffffffffffffffffffffffffff1614159050919050565b50505050565b50505050565b60006128348473ffffffffffffffffffffffffffffffffffffffff16612f83565b1561299d578373ffffffffffffffffffffffffffffffffffffffff1663150b7a0261285d6119de565b8786866040518563ffffffff1660e01b815260040161287f9493929190615016565b602060405180830381600087803b15801561289957600080fd5b505af19250505080156128ca57506040513d601f19601f820116820180604052508101906128c79190615077565b60015b61294d573d80600081146128fa576040519150601f19603f3d011682016040523d82523d6000602084013e6128ff565b606091505b50600081511415612945576040517f08c379a000000000000000000000000000000000000000000000000000000000815260040161293c90614b43565b60405180910390fd5b805181602001fd5b63150b7a0260e01b7bffffffffffffffffffffffffffffffffffffffffffffffffffffffff1916817bffffffffffffffffffffffffffffffffffffffffffffffffffffffff1916149150506129a2565b600190505b949350505050565b606060405180602001604052806000815250905090565b60606129cc82611993565b60006129d66129aa565b905060008151116129f65760405180602001604052806000815250612a21565b80612a0084612fa6565b604051602001612a11929190614b9f565b6040516020818303038152906040525b915050919050565b612a33838361307e565b612a406000848484612813565b612a7f576040517f08c379a0000000000000000000000000000000000000000000000000000000008152600401612a7690614b43565b60405180910390fd5b505050565b60008083604051602001612a98919061513b565b60405160208183030381529060405290508083604051602001612abc9291906151a8565b6040516020818303038152906040528051906020012091506040518060400160405280601c81526020017f19457468657265756d205369676e6564204d6573736167653a0a33320000000081525082604051602001612b1c9291906151f1565b6040516020818303038152906040528051906020012091505092915050565b6000806000612b4a858561329c565b91509150612b57816132ee565b819250505092915050565b60007f01ffc9a7000000000000000000000000000000000000000000000000000000007bffffffffffffffffffffffffffffffffffffffffffffffffffffffff1916827bffffffffffffffffffffffffffffffffffffffffffffffffffffffff1916149050919050565b6060612bf28273ffffffffffffffffffffffffffffffffffffffff16601460ff16612bf9565b9050919050565b606060006002836002612c0c9190615219565b612c169190615273565b67ffffffffffffffff811115612c2f57612c2e613e36565b5b6040519080825280601f01601f191660200182016040528015612c615781602001600182028036833780820191505090505b5090507f300000000000000000000000000000000000000000000000000000000000000081600081518110612c9957612c98614d2d565b5b60200101907effffffffffffffffffffffffffffffffffffffffffffffffffffffffffffff1916908160001a9053507f780000000000000000000000000000000000000000000000000000000000000081600181518110612cfd57612cfc614d2d565b5b60200101907effffffffffffffffffffffffffffffffffffffffffffffffffffffffffffff1916908160001a90535060006001846002612d3d9190615219565b612d479190615273565b90505b6001811115612de7577f3031323334353637383961626364656600000000000000000000000000000000600f861660108110612d8957612d88614d2d565b5b1a60f81b828281518110612da057612d9f614d2d565b5b60200101907effffffffffffffffffffffffffffffffffffffffffffffffffffffffffffff1916908160001a905350600485901c945080612de0906152c9565b9050612d4a565b5060008414612e2b576040517f08c379a0000000000000000000000000000000000000000000000000000000008152600401612e229061533f565b60405180910390fd5b8091505092915050565b6000612e4082610d73565b9050612e50816000846001612807565b612e5982610d73565b90506004600083815260200190815260200160002060006101000a81549073ffffffffffffffffffffffffffffffffffffffff02191690556001600360008373ffffffffffffffffffffffffffffffffffffffff1673ffffffffffffffffffffffffffffffffffffffff168152602001908152602001600020600082825403925050819055506002600083815260200190815260200160002060006101000a81549073ffffffffffffffffffffffffffffffffffffffff021916905581600073ffffffffffffffffffffffffffffffffffffffff168273ffffffffffffffffffffffffffffffffffffffff167fddf252ad1be2c89b69c2b068fc378daa952ba7f163c4a11628f55a4df523b3ef60405160405180910390a4612f7f81600084600161280d565b5050565b6000808273ffffffffffffffffffffffffffffffffffffffff163b119050919050565b606060006001612fb58461345c565b01905060008167ffffffffffffffff811115612fd457612fd3613e36565b5b6040519080825280601f01601f1916602001820160405280156130065781602001600182028036833780820191505090505b509050600082602001820190505b600115613073578080600190039150507f3031323334353637383961626364656600000000000000000000000000000000600a86061a8153600a858161305d5761305c61535f565b5b049450600085141561306e57613073565b613014565b819350505050919050565b600073ffffffffffffffffffffffffffffffffffffffff168273ffffffffffffffffffffffffffffffffffffffff1614156130ee576040517f08c379a00000000000000000000000000000000000000000000000000000000081526004016130e5906153da565b60405180910390fd5b6130f7816127c6565b15613137576040517f08c379a000000000000000000000000000000000000000000000000000000000815260040161312e90615446565b60405180910390fd5b613145600083836001612807565b61314e816127c6565b1561318e576040517f08c379a000000000000000000000000000000000000000000000000000000000815260040161318590615446565b60405180910390fd5b6001600360008473ffffffffffffffffffffffffffffffffffffffff1673ffffffffffffffffffffffffffffffffffffffff16815260200190815260200160002060008282540192505081905550816002600083815260200190815260200160002060006101000a81548173ffffffffffffffffffffffffffffffffffffffff021916908373ffffffffffffffffffffffffffffffffffffffff160217905550808273ffffffffffffffffffffffffffffffffffffffff16600073ffffffffffffffffffffffffffffffffffffffff167fddf252ad1be2c89b69c2b068fc378daa952ba7f163c4a11628f55a4df523b3ef60405160405180910390a461329860008383600161280d565b5050565b6000806041835114156132de5760008060006020860151925060408601519150606086015160001a90506132d2878285856135af565b945094505050506132e7565b60006002915091505b9250929050565b6000600481111561330257613301615466565b5b81600481111561331557613314615466565b5b141561332057613459565b6001600481111561333457613333615466565b5b81600481111561334757613346615466565b5b1415613388576040517f08c379a000000000000000000000000000000000000000000000000000000000815260040161337f906154e1565b60405180910390fd5b6002600481111561339c5761339b615466565b5b8160048111156133af576133ae615466565b5b14156133f0576040517f08c379a00000000000000000000000000000000000000000000000000000000081526004016133e79061554d565b60405180910390fd5b6003600481111561340457613403615466565b5b81600481111561341757613416615466565b5b1415613458576040517f08c379a000000000000000000000000000000000000000000000000000000000815260040161344f906155df565b60405180910390fd5b5b50565b600080600090507a184f03e93ff9f4daa797ed6e38ed64bf6a1f01000000000000000083106134ba577a184f03e93ff9f4daa797ed6e38ed64bf6a1f01000000000000000083816134b0576134af61535f565b5b0492506040810190505b6d04ee2d6d415b85acef810000000083106134f7576d04ee2d6d415b85acef810000000083816134ed576134ec61535f565b5b0492506020810190505b662386f26fc10000831061352657662386f26fc10000838161351c5761351b61535f565b5b0492506010810190505b6305f5e100831061354f576305f5e10083816135455761354461535f565b5b0492506008810190505b612710831061357457612710838161356a5761356961535f565b5b0492506004810190505b60648310613597576064838161358d5761358c61535f565b5b0492506002810190505b600a83106135a6576001810190505b80915050919050565b6000807f7fffffffffffffffffffffffffffffff5d576e7357a4501ddfe92f46681b20a08360001c11156135ea576000600391509150613689565b60006001878787876040516000815260200160405260405161360f949392919061561b565b6020604051602081039080840390855afa158015613631573d6000803e3d6000fd5b505050602060405103519050600073ffffffffffffffffffffffffffffffffffffffff168173ffffffffffffffffffffffffffffffffffffffff16141561368057600060019250925050613689565b80600092509250505b94509492505050565b6040518060800160405280600081526020016060815260200160608152602001600081525090565b8280546136c690614292565b90600052602060002090601f0160209004810192826136e8576000855561372f565b82601f1061370157805160ff191683800117855561372f565b8280016001018555821561372f579182015b8281111561372e578251825591602001919060010190613713565b5b50905061373c9190613780565b5090565b50805461374c90614292565b6000825580601f1061375e575061377d565b601f01602090049060005260206000209081019061377c9190613780565b5b50565b5b80821115613799576000816000905550600101613781565b5090565b6000604051905090565b600080fd5b600080fd5b60007fffffffff0000000000000000000000000000000000000000000000000000000082169050919050565b6137e6816137b1565b81146137f157600080fd5b50565b600081359050613803816137dd565b92915050565b60006020828403121561381f5761381e6137a7565b5b600061382d848285016137f4565b91505092915050565b60008115159050919050565b61384b81613836565b82525050565b60006020820190506138666000830184613842565b92915050565b6000819050919050565b61387f8161386c565b811461388a57600080fd5b50565b60008135905061389c81613876565b92915050565b6000602082840312156138b8576138b76137a7565b5b60006138c68482850161388d565b91505092915050565b600081519050919050565b600082825260208201905092915050565b60005b838110156139095780820151818401526020810190506138ee565b83811115613918576000848401525b50505050565b6000601f19601f8301169050919050565b600061393a826138cf565b61394481856138da565b93506139548185602086016138eb565b61395d8161391e565b840191505092915050565b60006020820190508181036000830152613982818461392f565b905092915050565b600073ffffffffffffffffffffffffffffffffffffffff82169050919050565b60006139b58261398a565b9050919050565b6139c5816139aa565b82525050565b60006020820190506139e060008301846139bc565b92915050565b6139ef816139aa565b81146139fa57600080fd5b50565b600081359050613a0c816139e6565b92915050565b60008060408385031215613a2957613a286137a7565b5b6000613a37858286016139fd565b9250506020613a488582860161388d565b9150509250929050565b600080fd5b600080fd5b600080fd5b60008083601f840112613a7757613a76613a52565b5b8235905067ffffffffffffffff811115613a9457613a93613a57565b5b602083019150836001820283011115613ab057613aaf613a5c565b5b9250929050565b600080600080600060808688031215613ad357613ad26137a7565b5b6000613ae1888289016139fd565b9550506020613af2888289016139fd565b9450506040613b038882890161388d565b935050606086013567ffffffffffffffff811115613b2457613b236137ac565b5b613b3088828901613a61565b92509250509295509295909350565b613b48816137b1565b82525050565b6000602082019050613b636000830184613b3f565b92915050565b600060208284031215613b7f57613b7e6137a7565b5b6000613b8d848285016139fd565b91505092915050565b600080600060608486031215613baf57613bae6137a7565b5b6000613bbd868287016139fd565b9350506020613bce868287016139fd565b9250506040613bdf8682870161388d565b9150509250925092565b6000819050919050565b613bfc81613be9565b8114613c0757600080fd5b50565b600081359050613c1981613bf3565b92915050565b600060208284031215613c3557613c346137a7565b5b6000613c4384828501613c0a565b91505092915050565b613c5581613be9565b82525050565b6000602082019050613c706000830184613c4c565b92915050565b60008060408385031215613c8d57613c8c6137a7565b5b6000613c9b85828601613c0a565b9250506020613cac858286016139fd565b9150509250929050565b613cbf8161386c565b82525050565b6000602082019050613cda6000830184613cb6565b92915050565b613ce98161386c565b82525050565b600082825260208201905092915050565b6000613d0b826138cf565b613d158185613cef565b9350613d258185602086016138eb565b613d2e8161391e565b840191505092915050565b6000608083016000830151613d516000860182613ce0565b5060208301518482036020860152613d698282613d00565b91505060408301518482036040860152613d838282613d00565b9150506060830151613d986060860182613ce0565b508091505092915050565b60006020820190508181036000830152613dbd8184613d39565b905092915050565b613dce81613836565b8114613dd957600080fd5b50565b600081359050613deb81613dc5565b92915050565b60008060408385031215613e0857613e076137a7565b5b6000613e16858286016139fd565b9250506020613e2785828601613ddc565b9150509250929050565b600080fd5b7f4e487b7100000000000000000000000000000000000000000000000000000000600052604160045260246000fd5b613e6e8261391e565b810181811067ffffffffffffffff82111715613e8d57613e8c613e36565b5b80604052505050565b6000613ea061379d565b9050613eac8282613e65565b919050565b600067ffffffffffffffff821115613ecc57613ecb613e36565b5b613ed58261391e565b9050602081019050919050565b82818337600083830152505050565b6000613f04613eff84613eb1565b613e96565b905082815260208101848484011115613f2057613f1f613e31565b5b613f2b848285613ee2565b509392505050565b600082601f830112613f4857613f47613a52565b5b8135613f58848260208601613ef1565b91505092915050565b60008060008060808587031215613f7b57613f7a6137a7565b5b6000613f89878288016139fd565b9450506020613f9a878288016139fd565b9350506040613fab8782880161388d565b925050606085013567ffffffffffffffff811115613fcc57613fcb6137ac565b5b613fd887828801613f33565b91505092959194509250565b600067ffffffffffffffff821115613fff57613ffe613e36565b5b6140088261391e565b9050602081019050919050565b600061402861402384613fe4565b613e96565b90508281526020810184848401111561404457614043613e31565b5b61404f848285613ee2565b509392505050565b600082601f83011261406c5761406b613a52565b5b813561407c848260208601614015565b91505092915050565b6000806040838503121561409c5761409b6137a7565b5b60006140aa858286016139fd565b925050602083013567ffffffffffffffff8111156140cb576140ca6137ac565b5b6140d785828601614057565b9150509250929050565b600080fd5b6000606082840312156140fc576140fb6140e1565b5b81905092915050565b60008083601f84011261411b5761411a613a52565b5b8235905067ffffffffffffffff81111561413857614137613a57565b5b60208301915083602082028301111561415457614153613a5c565b5b9250929050565b600080600080600060c08688031215614177576141766137a7565b5b6000614185888289016139fd565b9550506020614196888289016140e6565b94505060806141a78882890161388d565b93505060a086013567ffffffffffffffff8111156141c8576141c76137ac565b5b6141d488828901614105565b92509250509295509295909350565b600080604083850312156141fa576141f96137a7565b5b60006142088582860161388d565b9250506020614219858286016139fd565b9150509250929050565b6000806040838503121561423a576142396137a7565b5b6000614248858286016139fd565b9250506020614259858286016139fd565b9150509250929050565b7f4e487b7100000000000000000000000000000000000000000000000000000000600052602260045260246000fd5b600060028204905060018216806142aa57607f821691505b602082108114156142be576142bd614263565b5b50919050565b7f4552433732313a20617070726f76616c20746f2063757272656e74206f776e6560008201527f7200000000000000000000000000000000000000000000000000000000000000602082015250565b60006143206021836138da565b915061432b826142c4565b604082019050919050565b6000602082019050818103600083015261434f81614313565b9050919050565b7f4552433732313a20617070726f76652063616c6c6572206973206e6f7420746f60008201527f6b656e206f776e6572206f7220617070726f76656420666f7220616c6c000000602082015250565b60006143b2603d836138da565b91506143bd82614356565b604082019050919050565b600060208201905081810360008301526143e1816143a5565b9050919050565b7f416363657373436f6e74726f6c3a2063616e206f6e6c792072656e6f756e636560008201527f20726f6c657320666f722073656c660000000000000000000000000000000000602082015250565b6000614444602f836138da565b915061444f826143e8565b604082019050919050565b6000602082019050818103600083015261447381614437565b9050919050565b7f4552433732313a20696e76616c696420746f6b656e2049440000000000000000600082015250565b60006144b06018836138da565b91506144bb8261447a565b602082019050919050565b600060208201905081810360008301526144df816144a3565b9050919050565b7f4552433732313a2061646472657373207a65726f206973206e6f74206120766160008201527f6c6964206f776e65720000000000000000000000000000000000000000000000602082015250565b60006145426029836138da565b915061454d826144e6565b604082019050919050565b6000602082019050818103600083015261457181614535565b9050919050565b7f4552433732313a2063616c6c6572206973206e6f7420746f6b656e206f776e6560008201527f72206f7220617070726f76656400000000000000000000000000000000000000602082015250565b60006145d4602d836138da565b91506145df82614578565b604082019050919050565b60006020820190508181036000830152614603816145c7565b9050919050565b7f4e487b7100000000000000000000000000000000000000000000000000000000600052601160045260246000fd5b60006146448261386c565b915061464f8361386c565b9250828210156146625761466161460a565b5b828203905092915050565b7f41726520796f75207265616c6c79206f776e6572206f662074686973204e465460008201527f3f00000000000000000000000000000000000000000000000000000000000000602082015250565b60006146c96021836138da565b91506146d48261466d565b604082019050919050565b600060208201905081810360008301526146f8816146bc565b9050919050565b7f45544820616d6f756e74206d7573742062652067726561746572207468616e2060008201527f3000000000000000000000000000000000000000000000000000000000000000602082015250565b600061475b6021836138da565b9150614766826146ff565b604082019050919050565b6000602082019050818103600083015261478a8161474e565b9050919050565b600081905092915050565b50565b60006147ac600083614791565b91506147b78261479c565b600082019050919050565b60006147cd8261479f565b9150819050919050565b7f4661696c656420746f2073656e64204554480000000000000000000000000000600082015250565b600061480d6012836138da565b9150614818826147d7565b602082019050919050565b6000602082019050818103600083015261483c81614800565b9050919050565b7f4e6f7420656e6f756768204554482073656e743b20636865636b20707269636560008201527f2100000000000000000000000000000000000000000000000000000000000000602082015250565b600061489f6021836138da565b91506148aa82614843565b604082019050919050565b600060208201905081810360008301526148ce81614892565b9050919050565b7f4163746976697479206e6f7420617661696c61626c6521000000000000000000600082015250565b600061490b6017836138da565b9150614916826148d5565b602082019050919050565b6000602082019050818103600083015261493a816148fe565b9050919050565b7f4552433732313a207472616e736665722066726f6d20696e636f72726563742060008201527f6f776e6572000000000000000000000000000000000000000000000000000000602082015250565b600061499d6025836138da565b91506149a882614941565b604082019050919050565b600060208201905081810360008301526149cc81614990565b9050919050565b7f4552433732313a207472616e7366657220746f20746865207a65726f2061646460008201527f7265737300000000000000000000000000000000000000000000000000000000602082015250565b6000614a2f6024836138da565b9150614a3a826149d3565b604082019050919050565b60006020820190508181036000830152614a5e81614a22565b9050919050565b7f4552433732313a20617070726f766520746f2063616c6c657200000000000000600082015250565b6000614a9b6019836138da565b9150614aa682614a65565b602082019050919050565b60006020820190508181036000830152614aca81614a8e565b9050919050565b7f4552433732313a207472616e7366657220746f206e6f6e20455243373231526560008201527f63656976657220696d706c656d656e7465720000000000000000000000000000602082015250565b6000614b2d6032836138da565b9150614b3882614ad1565b604082019050919050565b60006020820190508181036000830152614b5c81614b20565b9050919050565b600081905092915050565b6000614b79826138cf565b614b838185614b63565b9350614b938185602086016138eb565b80840191505092915050565b6000614bab8285614b6e565b9150614bb78284614b6e565b91508190509392505050565b7f45524337323155524953746f726167653a2055524920736574206f66206e6f6e60008201527f6578697374656e7420746f6b656e000000000000000000000000000000000000602082015250565b6000614c1f602e836138da565b9150614c2a82614bc3565b604082019050919050565b60006020820190508181036000830152614c4e81614c12565b9050919050565b7f6e6f6e636520616c726561647920757365640000000000000000000000000000600082015250565b6000614c8b6012836138da565b9150614c9682614c55565b602082019050919050565b60006020820190508181036000830152614cba81614c7e565b9050919050565b7f6e6f7420656e6f756768207369676e6572730000000000000000000000000000600082015250565b6000614cf76012836138da565b9150614d0282614cc1565b602082019050919050565b60006020820190508181036000830152614d2681614cea565b9050919050565b7f4e487b7100000000000000000000000000000000000000000000000000000000600052603260045260246000fd5b600080fd5b600080fd5b600080fd5b60008083356001602003843603038112614d8857614d87614d5c565b5b80840192508235915067ffffffffffffffff821115614daa57614da9614d61565b5b602083019250600182023603831315614dc657614dc5614d66565b5b509250929050565b7f706f737369626c65206475706c69636174650000000000000000000000000000600082015250565b6000614e046012836138da565b9150614e0f82614dce565b602082019050919050565b60006020820190508181036000830152614e3381614df7565b9050919050565b7f6e6f742070617274206f6620636f6e736f727469756d00000000000000000000600082015250565b6000614e706016836138da565b9150614e7b82614e3a565b602082019050919050565b60006020820190508181036000830152614e9f81614e63565b9050919050565b6000614eb18261386c565b91507fffffffffffffffffffffffffffffffffffffffffffffffffffffffffffffffff821415614ee457614ee361460a565b5b600182019050919050565b7f416363657373436f6e74726f6c3a206163636f756e7420000000000000000000600082015250565b6000614f25601783614b63565b9150614f3082614eef565b601782019050919050565b7f206973206d697373696e6720726f6c6520000000000000000000000000000000600082015250565b6000614f71601183614b63565b9150614f7c82614f3b565b601182019050919050565b6000614f9282614f18565b9150614f9e8285614b6e565b9150614fa982614f64565b9150614fb58284614b6e565b91508190509392505050565b600081519050919050565b600082825260208201905092915050565b6000614fe882614fc1565b614ff28185614fcc565b93506150028185602086016138eb565b61500b8161391e565b840191505092915050565b600060808201905061502b60008301876139bc565b61503860208301866139bc565b6150456040830185613cb6565b81810360608301526150578184614fdd565b905095945050505050565b600081519050615071816137dd565b92915050565b60006020828403121561508d5761508c6137a7565b5b600061509b84828501615062565b91505092915050565b60006150b3602084018461388d565b905092915050565b60006150ca60208401846139fd565b905092915050565b6150db816139aa565b82525050565b606082016150f260008301836150a4565b6150ff6000850182613ce0565b5061510d60208301836150a4565b61511a6020850182613ce0565b5061512860408301836150bb565b61513560408501826150d2565b50505050565b600060608201905061515060008301846150e1565b92915050565b600061516182614fc1565b61516b8185614791565b935061517b8185602086016138eb565b80840191505092915050565b6000819050919050565b6151a261519d8261386c565b615187565b82525050565b60006151b48285615156565b91506151c08284615191565b6020820191508190509392505050565b6000819050919050565b6151eb6151e682613be9565b6151d0565b82525050565b60006151fd8285614b6e565b915061520982846151da565b6020820191508190509392505050565b60006152248261386c565b915061522f8361386c565b9250817fffffffffffffffffffffffffffffffffffffffffffffffffffffffffffffffff04831182151516156152685761526761460a565b5b828202905092915050565b600061527e8261386c565b91506152898361386c565b9250827fffffffffffffffffffffffffffffffffffffffffffffffffffffffffffffffff038211156152be576152bd61460a565b5b828201905092915050565b60006152d48261386c565b915060008214156152e8576152e761460a565b5b600182039050919050565b7f537472696e67733a20686578206c656e67746820696e73756666696369656e74600082015250565b60006153296020836138da565b9150615334826152f3565b602082019050919050565b600060208201905081810360008301526153588161531c565b9050919050565b7f4e487b7100000000000000000000000000000000000000000000000000000000600052601260045260246000fd5b7f4552433732313a206d696e7420746f20746865207a65726f2061646472657373600082015250565b60006153c46020836138da565b91506153cf8261538e565b602082019050919050565b600060208201905081810360008301526153f3816153b7565b9050919050565b7f4552433732313a20746f6b656e20616c7265616479206d696e74656400000000600082015250565b6000615430601c836138da565b915061543b826153fa565b602082019050919050565b6000602082019050818103600083015261545f81615423565b9050919050565b7f4e487b7100000000000000000000000000000000000000000000000000000000600052602160045260246000fd5b7f45434453413a20696e76616c6964207369676e61747572650000000000000000600082015250565b60006154cb6018836138da565b91506154d682615495565b602082019050919050565b600060208201905081810360008301526154fa816154be565b9050919050565b7f45434453413a20696e76616c6964207369676e6174757265206c656e67746800600082015250565b6000615537601f836138da565b915061554282615501565b602082019050919050565b600060208201905081810360008301526155668161552a565b9050919050565b7f45434453413a20696e76616c6964207369676e6174757265202773272076616c60008201527f7565000000000000000000000000000000000000000000000000000000000000602082015250565b60006155c96022836138da565b91506155d48261556d565b604082019050919050565b600060208201905081810360008301526155f8816155bc565b9050919050565b600060ff82169050919050565b615615816155ff565b82525050565b60006080820190506156306000830187613c4c565b61563d602083018661560c565b61564a6040830185613c4c565b6156576060830184613c4c565b9594505050505056fea26469706673582212207e5ebfef671b8797141d1db7105e2d731dd0d3f23d87119f0687c1063b5c1fb964736f6c63430008090033",
  "linkReferences": {},
  "deployedLinkReferences": {}
}