{
  "_format": "hh-sol-artifact-1",
  "contractName": "TokenShop",
  "sourceName": "contracts/TokenShop.sol",
  "abi": [
    {
      "inputs": [
        {
          "internalType": "address",
          "name": "tokenAddress",
          "type": "address"
        }
      ],
      "stateMutability": "nonpayable",
      "type": "constructor"
    },
    {
      "inputs": [],
      "name": "getLatestPrice",
      "outputs": [
        {
          "internalType": "int256",
          "name": "",
          "type": "int256"
        }
      ],
      "stateMutability": "view",
      "type": "function"
    },
    {
      "inputs": [],
      "name": "minter",
      "outputs": [
        {
          "internalType": "contract TokenInterface",
          "name": "",
          "type": "address"
        }
      ],
      "stateMutability": "view",
      "type": "function"
    },
    {
      "inputs": [],
      "name": "owner",
      "outputs": [
        {
          "internalType": "address",
          "name": "",
          "type": "address"
        }
      ],
      "stateMutability": "view",
      "type": "function"
    },
    {
      "inputs": [
        {
          "internalType": "uint256",
          "name": "amountETH",
          "type": "uint256"
        }
      ],
      "name": "tokenAmount",
      "outputs": [
        {
          "internalType": "uint256",
          "name": "",
          "type": "uint256"
        }
      ],
      "stateMutability": "view",
      "type": "function"
    },
    {
      "inputs": [],
      "name": "tokenPrice",
      "outputs": [
        {
          "internalType": "uint256",
          "name": "",
          "type": "uint256"
        }
      ],
      "stateMutability": "view",
      "type": "function"
    },
    {
      "inputs": [],
      "name": "withdraw",
      "outputs": [],
      "stateMutability": "nonpayable",
      "type": "function"
    },
    {
      "stateMutability": "payable",
      "type": "receive"
    }
  ],
  "bytecode": "0x60806040526107d060025534801561001657600080fd5b50604051610aef380380610aef83398181016040528101906100389190610177565b80600160006101000a81548173ffffffffffffffffffffffffffffffffffffffff021916908373ffffffffffffffffffffffffffffffffffffffff16021790555073d4a33860578de61dbabdc8bfdb98fd742fa7028e6000806101000a81548173ffffffffffffffffffffffffffffffffffffffff021916908373ffffffffffffffffffffffffffffffffffffffff16021790555033600360006101000a81548173ffffffffffffffffffffffffffffffffffffffff021916908373ffffffffffffffffffffffffffffffffffffffff160217905550506101a4565b600080fd5b600073ffffffffffffffffffffffffffffffffffffffff82169050919050565b600061014482610119565b9050919050565b61015481610139565b811461015f57600080fd5b50565b6000815190506101718161014b565b92915050565b60006020828403121561018d5761018c610114565b5b600061019b84828501610162565b91505092915050565b61093c806101b36000396000f3fe6080604052600436106100595760003560e01c806307546172146101235780633ccfd60b1461014e57806345ab331e146101655780637ff9b596146101a25780638da5cb5b146101cd5780638e15f473146101f85761011e565b3661011e57600061006934610223565b9050600160009054906101000a900473ffffffffffffffffffffffffffffffffffffffff1673ffffffffffffffffffffffffffffffffffffffff166340c10f1933836040518363ffffffff1660e01b81526004016100c89291906104d2565b602060405180830381600087803b1580156100e257600080fd5b505af11580156100f6573d6000803e3d6000fd5b505050506040513d601f19601f8201168201806040525081019061011a9190610538565b5050005b600080fd5b34801561012f57600080fd5b5061013861027d565b60405161014591906105c4565b60405180910390f35b34801561015a57600080fd5b506101636102a3565b005b34801561017157600080fd5b5061018c6004803603810190610187919061060b565b610223565b6040516101999190610638565b60405180910390f35b3480156101ae57600080fd5b506101b761039e565b6040516101c49190610638565b60405180910390f35b3480156101d957600080fd5b506101e26103a4565b6040516101ef9190610653565b60405180910390f35b34801561020457600080fd5b5061020d6103ca565b60405161021a9190610687565b60405180910390f35b60008061022e6103ca565b90506000670de0b6b3a7640000828561024791906106d1565b610251919061075a565b9050600061271060025483610266919061075a565b610270919061075a565b9050809350505050919050565b600160009054906101000a900473ffffffffffffffffffffffffffffffffffffffff1681565b600360009054906101000a900473ffffffffffffffffffffffffffffffffffffffff1673ffffffffffffffffffffffffffffffffffffffff163373ffffffffffffffffffffffffffffffffffffffff1614610333576040517f08c379a000000000000000000000000000000000000000000000000000000000815260040161032a906107e8565b60405180910390fd5b600360009054906101000a900473ffffffffffffffffffffffffffffffffffffffff1673ffffffffffffffffffffffffffffffffffffffff166108fc479081150290604051600060405180830381858888f1935050505015801561039b573d6000803e3d6000fd5b50565b60025481565b600360009054906101000a900473ffffffffffffffffffffffffffffffffffffffff1681565b60008060008054906101000a900473ffffffffffffffffffffffffffffffffffffffff1673ffffffffffffffffffffffffffffffffffffffff1663feaf968c6040518163ffffffff1660e01b815260040160a06040518083038186803b15801561043357600080fd5b505afa158015610447573d6000803e3d6000fd5b505050506040513d601f19601f8201168201806040525081019061046b919061088b565b5050509150508091505090565b600073ffffffffffffffffffffffffffffffffffffffff82169050919050565b60006104a382610478565b9050919050565b6104b381610498565b82525050565b6000819050919050565b6104cc816104b9565b82525050565b60006040820190506104e760008301856104aa565b6104f460208301846104c3565b9392505050565b600080fd5b60008115159050919050565b61051581610500565b811461052057600080fd5b50565b6000815190506105328161050c565b92915050565b60006020828403121561054e5761054d6104fb565b5b600061055c84828501610523565b91505092915050565b6000819050919050565b600061058a61058561058084610478565b610565565b610478565b9050919050565b600061059c8261056f565b9050919050565b60006105ae82610591565b9050919050565b6105be816105a3565b82525050565b60006020820190506105d960008301846105b5565b92915050565b6105e8816104b9565b81146105f357600080fd5b50565b600081359050610605816105df565b92915050565b600060208284031215610621576106206104fb565b5b600061062f848285016105f6565b91505092915050565b600060208201905061064d60008301846104c3565b92915050565b600060208201905061066860008301846104aa565b92915050565b6000819050919050565b6106818161066e565b82525050565b600060208201905061069c6000830184610678565b92915050565b7f4e487b7100000000000000000000000000000000000000000000000000000000600052601160045260246000fd5b60006106dc826104b9565b91506106e7836104b9565b9250817fffffffffffffffffffffffffffffffffffffffffffffffffffffffffffffffff04831182151516156107205761071f6106a2565b5b828202905092915050565b7f4e487b7100000000000000000000000000000000000000000000000000000000600052601260045260246000fd5b6000610765826104b9565b9150610770836104b9565b9250826107805761077f61072b565b5b828204905092915050565b600082825260208201905092915050565b7f4170656e6173206f206f776e65722e0000000000000000000000000000000000600082015250565b60006107d2600f8361078b565b91506107dd8261079c565b602082019050919050565b60006020820190508181036000830152610801816107c5565b9050919050565b600069ffffffffffffffffffff82169050919050565b61082781610808565b811461083257600080fd5b50565b6000815190506108448161081e565b92915050565b6108538161066e565b811461085e57600080fd5b50565b6000815190506108708161084a565b92915050565b600081519050610885816105df565b92915050565b600080600080600060a086880312156108a7576108a66104fb565b5b60006108b588828901610835565b95505060206108c688828901610861565b94505060406108d788828901610876565b93505060606108e888828901610876565b92505060806108f988828901610835565b915050929550929590935056fea264697066735822122078637da96375f61fc602da539abb60bc319d9379dd8cffb9c70d628376c9329064736f6c63430008090033",
  "linkReferences": {},
  "deployedLinkReferences": {}
}