{
  "_format": "hh-sol-artifact-1",
  "contractName": "Web3DevMarketplace",
  "sourceName": "contracts/Web3DevMarketplace.sol",
  "abi": [
    {
      "inputs": [],
      "stateMutability": "nonpayable",
      "type": "constructor"
    },
    {
      "anonymous": false,
      "inputs": [
        {
          "indexed": true,
          "internalType": "uint256",
          "name": "activityId",
          "type": "uint256"
        }
      ],
      "name": "ActivityApproved",
      "type": "event"
    },
    {
      "anonymous": false,
      "inputs": [
        {
          "indexed": true,
          "internalType": "uint256",
          "name": "activityId",
          "type": "uint256"
        },
        {
          "indexed": true,
          "internalType": "address",
          "name": "member",
          "type": "address"
        }
      ],
      "name": "ActivityAssigned",
      "type": "event"
    },
    {
      "anonymous": false,
      "inputs": [
        {
          "indexed": true,
          "internalType": "uint256",
          "name": "activityId",
          "type": "uint256"
        }
      ],
      "name": "ActivityCompleted",
      "type": "event"
    },
    {
      "anonymous": false,
      "inputs": [
        {
          "indexed": true,
          "internalType": "uint256",
          "name": "activityId",
          "type": "uint256"
        }
      ],
      "name": "ActivityCreated",
      "type": "event"
    },
    {
      "anonymous": false,
      "inputs": [
        {
          "indexed": true,
          "internalType": "uint256",
          "name": "activityId",
          "type": "uint256"
        }
      ],
      "name": "ActivityDeleted",
      "type": "event"
    },
    {
      "anonymous": false,
      "inputs": [
        {
          "indexed": true,
          "internalType": "uint256",
          "name": "activityId",
          "type": "uint256"
        }
      ],
      "name": "ActivityRejected",
      "type": "event"
    },
    {
      "anonymous": false,
      "inputs": [
        {
          "indexed": true,
          "internalType": "address",
          "name": "owner",
          "type": "address"
        },
        {
          "indexed": true,
          "internalType": "address",
          "name": "approved",
          "type": "address"
        },
        {
          "indexed": true,
          "internalType": "uint256",
          "name": "tokenId",
          "type": "uint256"
        }
      ],
      "name": "Approval",
      "type": "event"
    },
    {
      "anonymous": false,
      "inputs": [
        {
          "indexed": true,
          "internalType": "address",
          "name": "owner",
          "type": "address"
        },
        {
          "indexed": true,
          "internalType": "address",
          "name": "operator",
          "type": "address"
        },
        {
          "indexed": false,
          "internalType": "bool",
          "name": "approved",
          "type": "bool"
        }
      ],
      "name": "ApprovalForAll",
      "type": "event"
    },
    {
      "anonymous": false,
      "inputs": [
        {
          "indexed": true,
          "internalType": "bytes32",
          "name": "role",
          "type": "bytes32"
        },
        {
          "indexed": true,
          "internalType": "bytes32",
          "name": "previousAdminRole",
          "type": "bytes32"
        },
        {
          "indexed": true,
          "internalType": "bytes32",
          "name": "newAdminRole",
          "type": "bytes32"
        }
      ],
      "name": "RoleAdminChanged",
      "type": "event"
    },
    {
      "anonymous": false,
      "inputs": [
        {
          "indexed": true,
          "internalType": "bytes32",
          "name": "role",
          "type": "bytes32"
        },
        {
          "indexed": true,
          "internalType": "address",
          "name": "account",
          "type": "address"
        },
        {
          "indexed": true,
          "internalType": "address",
          "name": "sender",
          "type": "address"
        }
      ],
      "name": "RoleGranted",
      "type": "event"
    },
    {
      "anonymous": false,
      "inputs": [
        {
          "indexed": true,
          "internalType": "bytes32",
          "name": "role",
          "type": "bytes32"
        },
        {
          "indexed": true,
          "internalType": "address",
          "name": "account",
          "type": "address"
        },
        {
          "indexed": true,
          "internalType": "address",
          "name": "sender",
          "type": "address"
        }
      ],
      "name": "RoleRevoked",
      "type": "event"
    },
    {
      "anonymous": false,
      "inputs": [
        {
          "indexed": true,
          "internalType": "address",
          "name": "from",
          "type": "address"
        },
        {
          "indexed": true,
          "internalType": "address",
          "name": "to",
          "type": "address"
        },
        {
          "indexed": true,
          "internalType": "uint256",
          "name": "tokenId",
          "type": "uint256"
        }
      ],
      "name": "Transfer",
      "type": "event"
    },
    {
      "inputs": [],
      "name": "DEFAULT_ADMIN_ROLE",
      "outputs": [
        {
          "internalType": "bytes32",
          "name": "",
          "type": "bytes32"
        }
      ],
      "stateMutability": "view",
      "type": "function"
    },
    {
      "inputs": [],
      "name": "LEADER_ROLE",
      "outputs": [
        {
          "internalType": "bytes32",
          "name": "",
          "type": "bytes32"
        }
      ],
      "stateMutability": "view",
      "type": "function"
    },
    {
      "inputs": [],
      "name": "MEMBER_ROLE",
      "outputs": [
        {
          "internalType": "bytes32",
          "name": "",
          "type": "bytes32"
        }
      ],
      "stateMutability": "view",
      "type": "function"
    },
    {
      "inputs": [
        {
          "internalType": "uint256",
          "name": "",
          "type": "uint256"
        }
      ],
      "name": "activities",
      "outputs": [
        {
          "internalType": "uint256",
          "name": "id",
          "type": "uint256"
        },
        {
          "internalType": "string",
          "name": "title",
          "type": "string"
        },
        {
          "internalType": "string",
          "name": "description",
          "type": "string"
        },
        {
          "internalType": "uint256",
          "name": "reward",
          "type": "uint256"
        },
        {
          "internalType": "address",
          "name": "createdBy",
          "type": "address"
        },
        {
          "internalType": "address",
          "name": "assignedTo",
          "type": "address"
        },
        {
          "internalType": "uint256",
          "name": "requiredApprovals",
          "type": "uint256"
        },
        {
          "internalType": "uint256",
          "name": "approvalsReceived",
          "type": "uint256"
        },
        {
          "internalType": "enum Web3DevMarketplace.Status",
          "name": "status",
          "type": "uint8"
        }
      ],
      "stateMutability": "view",
      "type": "function"
    },
    {
      "inputs": [
        {
          "internalType": "address",
          "name": "to",
          "type": "address"
        },
        {
          "internalType": "uint256",
          "name": "tokenId",
          "type": "uint256"
        }
      ],
      "name": "approve",
      "outputs": [],
      "stateMutability": "nonpayable",
      "type": "function"
    },
    {
      "inputs": [
        {
          "internalType": "uint256",
          "name": "activityId",
          "type": "uint256"
        }
      ],
      "name": "approveActivity",
      "outputs": [],
      "stateMutability": "nonpayable",
      "type": "function"
    },
    {
      "inputs": [
        {
          "internalType": "uint256",
          "name": "",
          "type": "uint256"
        },
        {
          "internalType": "uint256",
          "name": "",
          "type": "uint256"
        }
      ],
      "name": "approvers",
      "outputs": [
        {
          "internalType": "address",
          "name": "",
          "type": "address"
        }
      ],
      "stateMutability": "view",
      "type": "function"
    },
    {
      "inputs": [
        {
          "internalType": "uint256",
          "name": "activityId",
          "type": "uint256"
        }
      ],
      "name": "assignActivity",
      "outputs": [],
      "stateMutability": "nonpayable",
      "type": "function"
    },
    {
      "inputs": [
        {
          "internalType": "address",
          "name": "owner",
          "type": "address"
        }
      ],
      "name": "balanceOf",
      "outputs": [
        {
          "internalType": "uint256",
          "name": "",
          "type": "uint256"
        }
      ],
      "stateMutability": "view",
      "type": "function"
    },
    {
      "inputs": [
        {
          "internalType": "uint256",
          "name": "activityId",
          "type": "uint256"
        }
      ],
      "name": "completeActivity",
      "outputs": [],
      "stateMutability": "nonpayable",
      "type": "function"
    },
    {
      "inputs": [
        {
          "internalType": "string",
          "name": "title",
          "type": "string"
        },
        {
          "internalType": "string",
          "name": "description",
          "type": "string"
        },
        {
          "internalType": "uint256",
          "name": "reward",
          "type": "uint256"
        },
        {
          "internalType": "uint256",
          "name": "requiredApprovals",
          "type": "uint256"
        },
        {
          "internalType": "string",
          "name": "tokenUri",
          "type": "string"
        }
      ],
      "name": "createActivity",
      "outputs": [
        {
          "internalType": "uint256",
          "name": "",
          "type": "uint256"
        }
      ],
      "stateMutability": "payable",
      "type": "function"
    },
    {
      "inputs": [
        {
          "internalType": "uint256",
          "name": "activityId",
          "type": "uint256"
        }
      ],
      "name": "deleteActivity",
      "outputs": [],
      "stateMutability": "nonpayable",
      "type": "function"
    },
    {
      "inputs": [
        {
          "internalType": "uint256",
          "name": "tokenId",
          "type": "uint256"
        }
      ],
      "name": "getApproved",
      "outputs": [
        {
          "internalType": "address",
          "name": "",
          "type": "address"
        }
      ],
      "stateMutability": "view",
      "type": "function"
    },
    {
      "inputs": [],
      "name": "getBalance",
      "outputs": [
        {
          "internalType": "uint256",
          "name": "",
          "type": "uint256"
        }
      ],
      "stateMutability": "view",
      "type": "function"
    },
    {
      "inputs": [],
      "name": "getContractBalance",
      "outputs": [
        {
          "internalType": "uint256",
          "name": "",
          "type": "uint256"
        }
      ],
      "stateMutability": "view",
      "type": "function"
    },
    {
      "inputs": [
        {
          "internalType": "bytes32",
          "name": "role",
          "type": "bytes32"
        }
      ],
      "name": "getRoleAdmin",
      "outputs": [
        {
          "internalType": "bytes32",
          "name": "",
          "type": "bytes32"
        }
      ],
      "stateMutability": "view",
      "type": "function"
    },
    {
      "inputs": [],
      "name": "getTokenCount",
      "outputs": [
        {
          "internalType": "uint256",
          "name": "",
          "type": "uint256"
        }
      ],
      "stateMutability": "view",
      "type": "function"
    },
    {
      "inputs": [
        {
          "internalType": "address",
          "name": "user",
          "type": "address"
        }
      ],
      "name": "getUserActivities",
      "outputs": [
        {
          "internalType": "uint256[]",
          "name": "",
          "type": "uint256[]"
        }
      ],
      "stateMutability": "view",
      "type": "function"
    },
    {
      "inputs": [
        {
          "internalType": "bytes32",
          "name": "role",
          "type": "bytes32"
        },
        {
          "internalType": "address",
          "name": "account",
          "type": "address"
        }
      ],
      "name": "grantRole",
      "outputs": [],
      "stateMutability": "nonpayable",
      "type": "function"
    },
    {
      "inputs": [
        {
          "internalType": "bytes32",
          "name": "role",
          "type": "bytes32"
        },
        {
          "internalType": "address",
          "name": "account",
          "type": "address"
        }
      ],
      "name": "hasRole",
      "outputs": [
        {
          "internalType": "bool",
          "name": "",
          "type": "bool"
        }
      ],
      "stateMutability": "view",
      "type": "function"
    },
    {
      "inputs": [
        {
          "internalType": "address",
          "name": "owner",
          "type": "address"
        },
        {
          "internalType": "address",
          "name": "operator",
          "type": "address"
        }
      ],
      "name": "isApprovedForAll",
      "outputs": [
        {
          "internalType": "bool",
          "name": "",
          "type": "bool"
        }
      ],
      "stateMutability": "view",
      "type": "function"
    },
    {
      "inputs": [
        {
          "internalType": "uint256",
          "name": "activityId",
          "type": "uint256"
        },
        {
          "internalType": "address",
          "name": "leader",
          "type": "address"
        }
      ],
      "name": "isApprover",
      "outputs": [
        {
          "internalType": "bool",
          "name": "",
          "type": "bool"
        }
      ],
      "stateMutability": "view",
      "type": "function"
    },
    {
      "inputs": [],
      "name": "name",
      "outputs": [
        {
          "internalType": "string",
          "name": "",
          "type": "string"
        }
      ],
      "stateMutability": "view",
      "type": "function"
    },
    {
      "inputs": [
        {
          "internalType": "uint256",
          "name": "tokenId",
          "type": "uint256"
        }
      ],
      "name": "ownerOf",
      "outputs": [
        {
          "internalType": "address",
          "name": "",
          "type": "address"
        }
      ],
      "stateMutability": "view",
      "type": "function"
    },
    {
      "inputs": [
        {
          "internalType": "uint256",
          "name": "activityId",
          "type": "uint256"
        }
      ],
      "name": "rejectActivity",
      "outputs": [],
      "stateMutability": "nonpayable",
      "type": "function"
    },
    {
      "inputs": [
        {
          "internalType": "bytes32",
          "name": "role",
          "type": "bytes32"
        },
        {
          "internalType": "address",
          "name": "account",
          "type": "address"
        }
      ],
      "name": "renounceRole",
      "outputs": [],
      "stateMutability": "nonpayable",
      "type": "function"
    },
    {
      "inputs": [
        {
          "internalType": "bytes32",
          "name": "role",
          "type": "bytes32"
        },
        {
          "internalType": "address",
          "name": "account",
          "type": "address"
        }
      ],
      "name": "revokeRole",
      "outputs": [],
      "stateMutability": "nonpayable",
      "type": "function"
    },
    {
      "inputs": [
        {
          "internalType": "address",
          "name": "from",
          "type": "address"
        },
        {
          "internalType": "address",
          "name": "to",
          "type": "address"
        },
        {
          "internalType": "uint256",
          "name": "tokenId",
          "type": "uint256"
        }
      ],
      "name": "safeTransferFrom",
      "outputs": [],
      "stateMutability": "nonpayable",
      "type": "function"
    },
    {
      "inputs": [
        {
          "internalType": "address",
          "name": "from",
          "type": "address"
        },
        {
          "internalType": "address",
          "name": "to",
          "type": "address"
        },
        {
          "internalType": "uint256",
          "name": "tokenId",
          "type": "uint256"
        },
        {
          "internalType": "bytes",
          "name": "data",
          "type": "bytes"
        }
      ],
      "name": "safeTransferFrom",
      "outputs": [],
      "stateMutability": "nonpayable",
      "type": "function"
    },
    {
      "inputs": [
        {
          "internalType": "address",
          "name": "operator",
          "type": "address"
        },
        {
          "internalType": "bool",
          "name": "approved",
          "type": "bool"
        }
      ],
      "name": "setApprovalForAll",
      "outputs": [],
      "stateMutability": "nonpayable",
      "type": "function"
    },
    {
      "inputs": [
        {
          "internalType": "bytes4",
          "name": "interfaceId",
          "type": "bytes4"
        }
      ],
      "name": "supportsInterface",
      "outputs": [
        {
          "internalType": "bool",
          "name": "",
          "type": "bool"
        }
      ],
      "stateMutability": "view",
      "type": "function"
    },
    {
      "inputs": [],
      "name": "symbol",
      "outputs": [
        {
          "internalType": "string",
          "name": "",
          "type": "string"
        }
      ],
      "stateMutability": "view",
      "type": "function"
    },
    {
      "inputs": [
        {
          "internalType": "uint256",
          "name": "index",
          "type": "uint256"
        }
      ],
      "name": "tokenByIndex",
      "outputs": [
        {
          "internalType": "uint256",
          "name": "",
          "type": "uint256"
        }
      ],
      "stateMutability": "view",
      "type": "function"
    },
    {
      "inputs": [
        {
          "internalType": "address",
          "name": "owner",
          "type": "address"
        },
        {
          "internalType": "uint256",
          "name": "index",
          "type": "uint256"
        }
      ],
      "name": "tokenOfOwnerByIndex",
      "outputs": [
        {
          "internalType": "uint256",
          "name": "",
          "type": "uint256"
        }
      ],
      "stateMutability": "view",
      "type": "function"
    },
    {
      "inputs": [
        {
          "internalType": "uint256",
          "name": "tokenId",
          "type": "uint256"
        }
      ],
      "name": "tokenURI",
      "outputs": [
        {
          "internalType": "string",
          "name": "",
          "type": "string"
        }
      ],
      "stateMutability": "view",
      "type": "function"
    },
    {
      "inputs": [],
      "name": "totalSupply",
      "outputs": [
        {
          "internalType": "uint256",
          "name": "",
          "type": "uint256"
        }
      ],
      "stateMutability": "view",
      "type": "function"
    },
    {
      "inputs": [
        {
          "internalType": "address",
          "name": "from",
          "type": "address"
        },
        {
          "internalType": "address",
          "name": "to",
          "type": "address"
        },
        {
          "internalType": "uint256",
          "name": "tokenId",
          "type": "uint256"
        }
      ],
      "name": "transferFrom",
      "outputs": [],
      "stateMutability": "nonpayable",
      "type": "function"
    },
    {
      "inputs": [
        {
          "internalType": "address",
          "name": "",
          "type": "address"
        },
        {
          "internalType": "uint256",
          "name": "",
          "type": "uint256"
        }
      ],
      "name": "userActivities",
      "outputs": [
        {
          "internalType": "uint256",
          "name": "",
          "type": "uint256"
        }
      ],
      "stateMutability": "view",
      "type": "function"
    }
  ],
  "bytecode": "0x60806040523480156200001157600080fd5b50604080518082018252600f81526e57656233446576416374697669747960881b6020808301918252835180850190945260048452635744414360e01b90840152815191929162000065916001916200016f565b5080516200007b9060029060208401906200016f565b506200008d91506000905033620000bf565b620000b97fa870f1a91ab66a18174ae285449a007bea36a28441e5b44a847deb90f83e86eb33620000bf565b62000252565b620000cb8282620000cf565b5050565b6000828152602081815260408083206001600160a01b038516845290915290205460ff16620000cb576000828152602081815260408083206001600160a01b03851684529091529020805460ff191660011790556200012b3390565b6001600160a01b0316816001600160a01b0316837f2f8788117e7eff1d82e926ec794901d17c78024a50270940304540a733656f0d60405160405180910390a45050565b8280546200017d9062000215565b90600052602060002090601f016020900481019282620001a15760008555620001ec565b82601f10620001bc57805160ff1916838001178555620001ec565b82800160010185558215620001ec579182015b82811115620001ec578251825591602001919060010190620001cf565b50620001fa929150620001fe565b5090565b5b80821115620001fa5760008155600101620001ff565b600181811c908216806200022a57607f821691505b602082108114156200024c57634e487b7160e01b600052602260045260246000fd5b50919050565b61354e80620002626000396000f3fe6080604052600436106102255760003560e01c806370a0823111610123578063b42696c8116100ab578063c888de441161006f578063c888de441461067c578063d547741f1461069c578063df1bd99f146106bc578063e722cd53146106dc578063e985e9c5146106fc57600080fd5b8063b42696c8146105cf578063b88d4fde146105fc578063c3759eb81461061c578063c458b43d1461063c578063c87b56dd1461065c57600080fd5b80639fe7456e116100f25780639fe7456e14610524578063a10f469e14610544578063a217fddf14610578578063a22cb4651461058d578063a2e4aff0146105ad57600080fd5b806370a08231146104ba57806378a89567146104da57806391d14854146104ef57806395d89b411461050f57600080fd5b80632abf5ff2116101b157806342842e0e1161017557806342842e0e146104345780634f6ccce714610454578063548b29a3146104745780636352211e146104875780636f9fb98a146104a757600080fd5b80632abf5ff2146103945780632e092f9d146103b45780632f2ff15d146103d45780632f745c59146103f457806336568abe1461041457600080fd5b80630d1657e8116101f85780630d1657e8146102db57806312065fe01461031057806318160ddd1461032f57806323b872dd14610344578063248a9ca31461036457600080fd5b806301ffc9a71461022a57806306fdde031461025f578063081812fc14610281578063095ea7b3146102b9575b600080fd5b34801561023657600080fd5b5061024a610245366004612f8d565b610745565b60405190151581526020015b60405180910390f35b34801561026b57600080fd5b50610274610756565b60405161025691906131d6565b34801561028d57600080fd5b506102a161029c366004612f51565b6107e8565b6040516001600160a01b039091168152602001610256565b3480156102c557600080fd5b506102d96102d4366004612f27565b61080f565b005b3480156102e757600080fd5b506102fb6102f6366004612f51565b61092a565b604051610256999897969594939291906132fd565b34801561031c57600080fd5b50600d545b604051908152602001610256565b34801561033b57600080fd5b50600a54610321565b34801561035057600080fd5b506102d961035f366004612e33565b610a94565b34801561037057600080fd5b5061032161037f366004612f51565b60009081526020819052604090206001015490565b3480156103a057600080fd5b506102a16103af366004613063565b610ac5565b3480156103c057600080fd5b506103216103cf366004612f27565b610afd565b3480156103e057600080fd5b506102d96103ef366004612f6a565b610b2e565b34801561040057600080fd5b5061032161040f366004612f27565b610b53565b34801561042057600080fd5b506102d961042f366004612f6a565b610be9565b34801561044057600080fd5b506102d961044f366004612e33565b610c67565b34801561046057600080fd5b5061032161046f366004612f51565b610c82565b610321610482366004612fc7565b610d15565b34801561049357600080fd5b506102a16104a2366004612f51565b611007565b3480156104b357600080fd5b5047610321565b3480156104c657600080fd5b506103216104d5366004612de5565b611067565b3480156104e657600080fd5b506103216110ed565b3480156104fb57600080fd5b5061024a61050a366004612f6a565b6110fd565b34801561051b57600080fd5b50610274611126565b34801561053057600080fd5b506102d961053f366004612f51565b611135565b34801561055057600080fd5b506103217f829b824e2329e205435d941c9f13baf578548505283d29261236d8e6596d463681565b34801561058457600080fd5b50610321600081565b34801561059957600080fd5b506102d96105a8366004612eeb565b61138a565b3480156105b957600080fd5b506103216000805160206134f983398151915281565b3480156105db57600080fd5b506105ef6105ea366004612de5565b611395565b6040516102569190613192565b34801561060857600080fd5b506102d9610617366004612e6f565b611401565b34801561062857600080fd5b5061024a610637366004612f6a565b611439565b34801561064857600080fd5b506102d9610657366004612f51565b611504565b34801561066857600080fd5b50610274610677366004612f51565b611679565b34801561068857600080fd5b506102d9610697366004612f51565b611684565b3480156106a857600080fd5b506102d96106b7366004612f6a565b611822565b3480156106c857600080fd5b506102d96106d7366004612f51565b611847565b3480156106e857600080fd5b506102d96106f7366004612f51565b6119a6565b34801561070857600080fd5b5061024a610717366004612e00565b6001600160a01b03918216600090815260066020908152604080832093909416825291909152205460ff1690565b600061075082611b23565b92915050565b6060600180546107659061341e565b80601f01602080910402602001604051908101604052809291908181526020018280546107919061341e565b80156107de5780601f106107b3576101008083540402835291602001916107de565b820191906000526020600020905b8154815290600101906020018083116107c157829003601f168201915b5050505050905090565b60006107f382611b48565b506000908152600560205260409020546001600160a01b031690565b600061081a82611007565b9050806001600160a01b0316836001600160a01b0316141561088d5760405162461bcd60e51b815260206004820152602160248201527f4552433732313a20617070726f76616c20746f2063757272656e74206f776e656044820152603960f91b60648201526084015b60405180910390fd5b336001600160a01b03821614806108a957506108a98133610717565b61091b5760405162461bcd60e51b815260206004820152603d60248201527f4552433732313a20617070726f76652063616c6c6572206973206e6f7420746f60448201527f6b656e206f776e6572206f7220617070726f76656420666f7220616c6c0000006064820152608401610884565b6109258383611ba7565b505050565b600e602052600090815260409020805460018201805491929161094c9061341e565b80601f01602080910402602001604051908101604052809291908181526020018280546109789061341e565b80156109c55780601f1061099a576101008083540402835291602001916109c5565b820191906000526020600020905b8154815290600101906020018083116109a857829003601f168201915b5050505050908060020180546109da9061341e565b80601f0160208091040260200160405190810160405280929190818152602001828054610a069061341e565b8015610a535780601f10610a2857610100808354040283529160200191610a53565b820191906000526020600020905b815481529060010190602001808311610a3657829003601f168201915b5050505060038301546004840154600585015460068601546007870154600890970154959693956001600160a01b0393841695509290911692909160ff1689565b610a9e3382611c15565b610aba5760405162461bcd60e51b8152600401610884906131e9565b610925838383611c94565b60106020528160005260406000208181548110610ae157600080fd5b6000918252602090912001546001600160a01b03169150829050565b600f6020528160005260406000208181548110610b1957600080fd5b90600052602060002001600091509150505481565b600082815260208190526040902060010154610b4981611e05565b6109258383611e0f565b6000610b5e83611067565b8210610bc05760405162461bcd60e51b815260206004820152602b60248201527f455243373231456e756d657261626c653a206f776e657220696e646578206f7560448201526a74206f6620626f756e647360a81b6064820152608401610884565b506001600160a01b03919091166000908152600860209081526040808320938352929052205490565b6001600160a01b0381163314610c595760405162461bcd60e51b815260206004820152602f60248201527f416363657373436f6e74726f6c3a2063616e206f6e6c792072656e6f756e636560448201526e103937b632b9903337b91039b2b63360891b6064820152608401610884565b610c638282611e93565b5050565b61092583838360405180602001604052806000815250611401565b6000610c8d600a5490565b8210610cf05760405162461bcd60e51b815260206004820152602c60248201527f455243373231456e756d657261626c653a20676c6f62616c20696e646578206f60448201526b7574206f6620626f756e647360a01b6064820152608401610884565b600a8281548110610d0357610d036134b6565b90600052602060002001549050919050565b6000610d2f6000805160206134f9833981519152336110fd565b610d4b5760405162461bcd60e51b8152600401610884906132cd565b60003411610da95760405162461bcd60e51b815260206004820152602560248201527f4465706f73697420616d6f756e74206d75737420626520677265617465722074604482015264068616e20360dc1b6064820152608401610884565b610db7600c80546001019055565b6000610dc2600c5490565b9050610dce3382611ef8565b610dd88184612091565b6000604051806101200160405280838152602001898152602001888152602001878152602001336001600160a01b0316815260200160006001600160a01b031681526020018681526020016000815260200160006005811115610e3d57610e3d61348a565b90526000838152600e602090815260409091208251815581830151805193945084939192610e7392600185019290910190612c64565b5060408201518051610e8f916002840191602090910190612c64565b506060820151600382015560808201516004820180546001600160a01b03199081166001600160a01b039384161790915560a0840151600580850180549093169190931617905560c0830151600683015560e083015160078301556101008301516008830180549192909160ff1916906001908490811115610f1357610f1361348a565b021790555050336000908152600f60209081526040808320805460018101825590845282842001869055858352601190915281208054349350909190610f5a90849061338d565b90915550506000828152601160205260409020543414610fd15760405162461bcd60e51b815260206004820152602c60248201527f4c6f636b65642062616c616e636520646f65736e2774206d617463682061637460448201526b1a5d9a5d1e481c995dd85c9960a21b6064820152608401610884565b60405182907fe46e166bf25839f3b9add9f41ca3c69267b637d5fac1a04f155f7a2e5b71503190600090a2509695505050505050565b6000818152600360205260408120546001600160a01b0316806107505760405162461bcd60e51b8152602060048201526018602482015277115490cdcc8c4e881a5b9d985b1a59081d1bdad95b88125160421b6044820152606401610884565b60006001600160a01b0382166110d15760405162461bcd60e51b815260206004820152602960248201527f4552433732313a2061646472657373207a65726f206973206e6f7420612076616044820152683634b21037bbb732b960b91b6064820152608401610884565b506001600160a01b031660009081526004602052604090205490565b60006110f8600c5490565b905090565b6000918252602082815260408084206001600160a01b0393909316845291905290205460ff1690565b6060600280546107659061341e565b61114d6000805160206134f9833981519152336110fd565b6111695760405162461bcd60e51b8152600401610884906132cd565b60026000828152600e602052604090206008015460ff1660058111156111915761119161348a565b146111d75760405162461bcd60e51b81526020600482015260166024820152751058dd1a5d9a5d1e481b9bdd0818dbdb5c1b195d195960521b6044820152606401610884565b6111e18133611439565b156112405760405162461bcd60e51b815260206004820152602960248201527f43616c6c65722068617320616c726561647920617070726f766564207468697360448201526820616374697669747960b81b6064820152608401610884565b6000818152600e6020526040812060070180549161125d83613459565b90915550506000818152600e6020526040902060068101546007909101541061132e576000818152600e6020818152604080842060088101805460ff19166003179055601083528185208054600181018255908652838620018054336001600160a01b0319909116179055858552601183528185205493909252600590910154905191926001600160a01b039091169182916108fc851502918591818181858888f19350505050158015611315573d6000803e3d6000fd5b506000838152601160205260408120556109258361212b565b6000818152601060209081526040808320805460018101825590845291832090910180546001600160a01b031916331790555182917f8c7be6f3ad0201fb345317f44341fd806ca66a4fe83a57faecab875ac32e306a91a25b50565b610c63338383612134565b6001600160a01b0381166000908152600f60209081526040918290208054835181840281018401909452808452606093928301828280156113f557602002820191906000526020600020905b8154815260200190600101908083116113e1575b50505050509050919050565b61140b3383611c15565b6114275760405162461bcd60e51b8152600401610884906131e9565b61143384848484612203565b50505050565b60008281526010602090815260408083208054825181850281018501909352808352849383018282801561149657602002820191906000526020600020905b81546001600160a01b03168152600190910190602001808311611478575b5050505050905060005b81518110156114f957836001600160a01b03168282815181106114c5576114c56134b6565b60200260200101516001600160a01b031614156114e757600192505050610750565b806114f181613459565b9150506114a0565b506000949350505050565b61152e7f829b824e2329e205435d941c9f13baf578548505283d29261236d8e6596d4636336110fd565b6115735760405162461bcd60e51b815260206004820152601660248201527521b0b63632b91034b9903737ba10309036b2b6b132b960511b6044820152606401610884565b6000818152600e602052604081206008015460ff1660058111156115995761159961348a565b146115f45760405162461bcd60e51b815260206004820152602560248201527f4163746976697479206e6f7420617661696c61626c6520666f722061737369676044820152641b9b595b9d60da1b6064820152608401610884565b6000818152600e602052604090206005810180546001600160a01b0319163317905560080180546001919060ff191682800217905550336000818152600f6020908152604080832080546001810182559084529183209091018490555183917fe38e53bf69180bbcf2d6a862068ffc6480f931cc9330d81495239df161cdd3d391a350565b606061075082612236565b6116ae7f829b824e2329e205435d941c9f13baf578548505283d29261236d8e6596d4636336110fd565b6116f35760405162461bcd60e51b815260206004820152601660248201527521b0b63632b91034b9903737ba10309036b2b6b132b960511b6044820152606401610884565b60016000828152600e602052604090206008015460ff16600581111561171b5761171b61348a565b146117685760405162461bcd60e51b815260206004820152601860248201527f4163746976697479206e6f7420696e2070726f677265737300000000000000006044820152606401610884565b6000818152600e60205260409020600501546001600160a01b031633146117dc5760405162461bcd60e51b815260206004820152602260248201527f43616c6c657220646964206e6f7420636c61696d207468697320616374697669604482015261747960f01b6064820152608401610884565b6000818152600e6020526040808220600801805460ff191660021790555182917f309533c897e843ca621a29503a4a5403b1e1ef08af596397c03f2a173127336991a250565b60008281526020819052604090206001015461183d81611e05565b6109258383611e93565b61185f6000805160206134f9833981519152336110fd565b61187b5760405162461bcd60e51b8152600401610884906132cd565b60016000828152600e602052604090206008015460ff1660058111156118a3576118a361348a565b14156118e85760405162461bcd60e51b8152602060048201526014602482015273416374697669747920696e2070726f677265737360601b6044820152606401610884565b60026000828152600e602052604090206008015460ff1660058111156119105761191061348a565b14156119535760405162461bcd60e51b81526020600482015260126024820152711058dd1a5d9a5d1e4818dbdb5c1b195d195960721b6044820152606401610884565b6000818152600e60205260409020600801805460ff191660051790556119788161212b565b60405181907f7666c2f553b5ed4528aef1c2337c6a7146aed3aec84e7fa96e41a78eb947035790600090a250565b6119be6000805160206134f9833981519152336110fd565b6119da5760405162461bcd60e51b8152600401610884906132cd565b60026000828152600e602052604090206008015460ff166005811115611a0257611a0261348a565b14611a485760405162461bcd60e51b81526020600482015260166024820152751058dd1a5d9a5d1e481b9bdd0818dbdb5c1b195d195960521b6044820152606401610884565b611a528133611439565b15611ab15760405162461bcd60e51b815260206004820152602960248201527f43616c6c65722068617320616c72656164792072656a6563746564207468697360448201526820616374697669747960b81b6064820152608401610884565b6000818152600e60209081526040808320600801805460ff191660041790556010825280832080546001810182559084529183209091018054336001600160a01b03199091161790555182917feb3fa068456d0317e03ecb4f3b878e829b708b143e11a54e1caafd6225c1e47391a250565b60006001600160e01b0319821663780e9d6360e01b148061075057506107508261233f565b6000818152600360205260409020546001600160a01b03166113875760405162461bcd60e51b8152602060048201526018602482015277115490cdcc8c4e881a5b9d985b1a59081d1bdad95b88125160421b6044820152606401610884565b600081815260056020526040902080546001600160a01b0319166001600160a01b0384169081179091558190611bdc82611007565b6001600160a01b03167f8c5be1e5ebec7d5bd14f71427d1e84f3dd0314c0f7b2291e5b200ac8c7c3b92560405160405180910390a45050565b600080611c2183611007565b9050806001600160a01b0316846001600160a01b03161480611c6857506001600160a01b0380821660009081526006602090815260408083209388168352929052205460ff165b80611c8c5750836001600160a01b0316611c81846107e8565b6001600160a01b0316145b949350505050565b826001600160a01b0316611ca782611007565b6001600160a01b031614611ccd5760405162461bcd60e51b815260040161088490613288565b6001600160a01b038216611d2f5760405162461bcd60e51b8152602060048201526024808201527f4552433732313a207472616e7366657220746f20746865207a65726f206164646044820152637265737360e01b6064820152608401610884565b611d3c838383600161237f565b826001600160a01b0316611d4f82611007565b6001600160a01b031614611d755760405162461bcd60e51b815260040161088490613288565b600081815260056020908152604080832080546001600160a01b03199081169091556001600160a01b0387811680865260048552838620805460001901905590871680865283862080546001019055868652600390945282852080549092168417909155905184937fddf252ad1be2c89b69c2b068fc378daa952ba7f163c4a11628f55a4df523b3ef91a4505050565b611387813361238b565b611e1982826110fd565b610c63576000828152602081815260408083206001600160a01b03851684529091529020805460ff19166001179055611e4f3390565b6001600160a01b0316816001600160a01b0316837f2f8788117e7eff1d82e926ec794901d17c78024a50270940304540a733656f0d60405160405180910390a45050565b611e9d82826110fd565b15610c63576000828152602081815260408083206001600160a01b0385168085529252808320805460ff1916905551339285917ff6391f5c32d9c69d2a47ea670b442974b53935d1edc7fd64eb21e047a839171b9190a45050565b6001600160a01b038216611f4e5760405162461bcd60e51b815260206004820181905260248201527f4552433732313a206d696e7420746f20746865207a65726f20616464726573736044820152606401610884565b6000818152600360205260409020546001600160a01b031615611fb35760405162461bcd60e51b815260206004820152601c60248201527f4552433732313a20746f6b656e20616c7265616479206d696e746564000000006044820152606401610884565b611fc160008383600161237f565b6000818152600360205260409020546001600160a01b0316156120265760405162461bcd60e51b815260206004820152601c60248201527f4552433732313a20746f6b656e20616c7265616479206d696e746564000000006044820152606401610884565b6001600160a01b038216600081815260046020908152604080832080546001019055848352600390915280822080546001600160a01b0319168417905551839291907fddf252ad1be2c89b69c2b068fc378daa952ba7f163c4a11628f55a4df523b3ef908290a45050565b6000828152600360205260409020546001600160a01b031661210c5760405162461bcd60e51b815260206004820152602e60248201527f45524337323155524953746f726167653a2055524920736574206f66206e6f6e60448201526d32bc34b9ba32b73a103a37b5b2b760911b6064820152608401610884565b6000828152600760209081526040909120825161092592840190612c64565b611387816123e4565b816001600160a01b0316836001600160a01b031614156121965760405162461bcd60e51b815260206004820152601960248201527f4552433732313a20617070726f766520746f2063616c6c6572000000000000006044820152606401610884565b6001600160a01b03838116600081815260066020908152604080832094871680845294825291829020805460ff191686151590811790915591519182527f17307eab39ab6107e8899845ad3d59bd9653f200f220920489ca2b5937696c31910160405180910390a3505050565b61220e848484611c94565b61221a84848484612424565b6114335760405162461bcd60e51b815260040161088490613236565b606061224182611b48565b6000828152600760205260408120805461225a9061341e565b80601f01602080910402602001604051908101604052809291908181526020018280546122869061341e565b80156122d35780601f106122a8576101008083540402835291602001916122d3565b820191906000526020600020905b8154815290600101906020018083116122b657829003601f168201915b5050505050905060006122f160408051602081019091526000815290565b9050805160001415612304575092915050565b81511561233657808260405160200161231e9291906130b1565b60405160208183030381529060405292505050919050565b611c8c84612531565b60006001600160e01b031982166380ac58cd60e01b148061237057506001600160e01b03198216635b5e139f60e01b145b806107505750610750826125a5565b611433848484846125da565b61239582826110fd565b610c63576123a28161270e565b6123ad836020612720565b6040516020016123be9291906130e0565b60408051601f198184030181529082905262461bcd60e51b8252610884916004016131d6565b6123ed816128bc565b600081815260076020526040902080546124069061341e565b15905061138757600081815260076020526040812061138791612ce8565b60006001600160a01b0384163b1561252657604051630a85bd0160e11b81526001600160a01b0385169063150b7a0290612468903390899088908890600401613155565b602060405180830381600087803b15801561248257600080fd5b505af19250505080156124b2575060408051601f3d908101601f191682019092526124af91810190612faa565b60015b61250c573d8080156124e0576040519150601f19603f3d011682016040523d82523d6000602084013e6124e5565b606091505b5080516125045760405162461bcd60e51b815260040161088490613236565b805181602001fd5b6001600160e01b031916630a85bd0160e11b149050611c8c565b506001949350505050565b606061253c82611b48565b600061255360408051602081019091526000815290565b90506000815111612573576040518060200160405280600081525061259e565b8061257d8461295f565b60405160200161258e9291906130b1565b6040516020818303038152906040525b9392505050565b60006001600160e01b03198216637965db0b60e01b148061075057506301ffc9a760e01b6001600160e01b0319831614610750565b60018111156126495760405162461bcd60e51b815260206004820152603560248201527f455243373231456e756d657261626c653a20636f6e7365637574697665207472604482015274185b9cd9995c9cc81b9bdd081cdd5c1c1bdc9d1959605a1b6064820152608401610884565b816001600160a01b0385166126a5576126a081600a80546000838152600b60205260408120829055600182018355919091527fc65a7bb8d6351c1cf70c95a316cc6a92839c986682d98bc35f958f4883f9d2a80155565b6126c8565b836001600160a01b0316856001600160a01b0316146126c8576126c885826129fc565b6001600160a01b0384166126e4576126df81612a99565b612707565b846001600160a01b0316846001600160a01b031614612707576127078482612b48565b5050505050565b60606107506001600160a01b03831660145b6060600061272f8360026133a5565b61273a90600261338d565b67ffffffffffffffff811115612752576127526134cc565b6040519080825280601f01601f19166020018201604052801561277c576020820181803683370190505b509050600360fc1b81600081518110612797576127976134b6565b60200101906001600160f81b031916908160001a905350600f60fb1b816001815181106127c6576127c66134b6565b60200101906001600160f81b031916908160001a90535060006127ea8460026133a5565b6127f590600161338d565b90505b600181111561286d576f181899199a1a9b1b9c1cb0b131b232b360811b85600f1660108110612829576128296134b6565b1a60f81b82828151811061283f5761283f6134b6565b60200101906001600160f81b031916908160001a90535060049490941c9361286681613407565b90506127f8565b50831561259e5760405162461bcd60e51b815260206004820181905260248201527f537472696e67733a20686578206c656e67746820696e73756666696369656e746044820152606401610884565b60006128c782611007565b90506128d781600084600161237f565b6128e082611007565b600083815260056020908152604080832080546001600160a01b03199081169091556001600160a01b0385168085526004845282852080546000190190558785526003909352818420805490911690555192935084927fddf252ad1be2c89b69c2b068fc378daa952ba7f163c4a11628f55a4df523b3ef908390a45050565b6060600061296c83612b8c565b600101905060008167ffffffffffffffff81111561298c5761298c6134cc565b6040519080825280601f01601f1916602001820160405280156129b6576020820181803683370190505b5090508181016020015b600019016f181899199a1a9b1b9c1cb0b131b232b360811b600a86061a8153600a85049450846129ef576129f4565b6129c0565b509392505050565b60006001612a0984611067565b612a1391906133c4565b600083815260096020526040902054909150808214612a66576001600160a01b03841660009081526008602090815260408083208584528252808320548484528184208190558352600990915290208190555b5060009182526009602090815260408084208490556001600160a01b039094168352600881528383209183525290812055565b600a54600090612aab906001906133c4565b6000838152600b6020526040812054600a8054939450909284908110612ad357612ad36134b6565b9060005260206000200154905080600a8381548110612af457612af46134b6565b6000918252602080832090910192909255828152600b9091526040808220849055858252812055600a805480612b2c57612b2c6134a0565b6001900381819060005260206000200160009055905550505050565b6000612b5383611067565b6001600160a01b039093166000908152600860209081526040808320868452825280832085905593825260099052919091209190915550565b60008072184f03e93ff9f4daa797ed6e38ed64bf6a1f0160401b8310612bcb5772184f03e93ff9f4daa797ed6e38ed64bf6a1f0160401b830492506040015b6d04ee2d6d415b85acef81000000008310612bf7576d04ee2d6d415b85acef8100000000830492506020015b662386f26fc100008310612c1557662386f26fc10000830492506010015b6305f5e1008310612c2d576305f5e100830492506008015b6127108310612c4157612710830492506004015b60648310612c53576064830492506002015b600a83106107505760010192915050565b828054612c709061341e565b90600052602060002090601f016020900481019282612c925760008555612cd8565b82601f10612cab57805160ff1916838001178555612cd8565b82800160010185558215612cd8579182015b82811115612cd8578251825591602001919060010190612cbd565b50612ce4929150612d1e565b5090565b508054612cf49061341e565b6000825580601f10612d04575050565b601f01602090049060005260206000209081019061138791905b5b80821115612ce45760008155600101612d1f565b600067ffffffffffffffff80841115612d4e57612d4e6134cc565b604051601f8501601f19908116603f01168101908282118183101715612d7657612d766134cc565b81604052809350858152868686011115612d8f57600080fd5b858560208301376000602087830101525050509392505050565b80356001600160a01b0381168114612dc057600080fd5b919050565b600082601f830112612dd657600080fd5b61259e83833560208501612d33565b600060208284031215612df757600080fd5b61259e82612da9565b60008060408385031215612e1357600080fd5b612e1c83612da9565b9150612e2a60208401612da9565b90509250929050565b600080600060608486031215612e4857600080fd5b612e5184612da9565b9250612e5f60208501612da9565b9150604084013590509250925092565b60008060008060808587031215612e8557600080fd5b612e8e85612da9565b9350612e9c60208601612da9565b925060408501359150606085013567ffffffffffffffff811115612ebf57600080fd5b8501601f81018713612ed057600080fd5b612edf87823560208401612d33565b91505092959194509250565b60008060408385031215612efe57600080fd5b612f0783612da9565b915060208301358015158114612f1c57600080fd5b809150509250929050565b60008060408385031215612f3a57600080fd5b612f4383612da9565b946020939093013593505050565b600060208284031215612f6357600080fd5b5035919050565b60008060408385031215612f7d57600080fd5b82359150612e2a60208401612da9565b600060208284031215612f9f57600080fd5b813561259e816134e2565b600060208284031215612fbc57600080fd5b815161259e816134e2565b600080600080600060a08688031215612fdf57600080fd5b853567ffffffffffffffff80821115612ff757600080fd5b61300389838a01612dc5565b9650602088013591508082111561301957600080fd5b61302589838a01612dc5565b95506040880135945060608801359350608088013591508082111561304957600080fd5b5061305688828901612dc5565b9150509295509295909350565b6000806040838503121561307657600080fd5b50508035926020909101359150565b6000815180845261309d8160208601602086016133db565b601f01601f19169290920160200192915050565b600083516130c38184602088016133db565b8351908301906130d78183602088016133db565b01949350505050565b7f416363657373436f6e74726f6c3a206163636f756e74200000000000000000008152600083516131188160178501602088016133db565b7001034b99036b4b9b9b4b733903937b6329607d1b60179184019182015283516131498160288401602088016133db565b01602801949350505050565b6001600160a01b038581168252841660208201526040810183905260806060820181905260009061318890830184613085565b9695505050505050565b6020808252825182820181905260009190848201906040850190845b818110156131ca578351835292840192918401916001016131ae565b50909695505050505050565b60208152600061259e6020830184613085565b6020808252602d908201527f4552433732313a2063616c6c6572206973206e6f7420746f6b656e206f776e6560408201526c1c881bdc88185c1c1c9bdd9959609a1b606082015260800190565b60208082526032908201527f4552433732313a207472616e7366657220746f206e6f6e20455243373231526560408201527131b2b4bb32b91034b6b83632b6b2b73a32b960711b606082015260800190565b60208082526025908201527f4552433732313a207472616e736665722066726f6d20696e636f72726563742060408201526437bbb732b960d91b606082015260800190565b60208082526016908201527521b0b63632b91034b9903737ba1030903632b0b232b960511b604082015260600190565b60006101208b83528060208401526133178184018c613085565b9050828103604084015261332b818b613085565b606084018a90526001600160a01b038981166080860152881660a085015260c0840187905260e084018690529150506006831061337857634e487b7160e01b600052602160045260246000fd5b826101008301529a9950505050505050505050565b600082198211156133a0576133a0613474565b500190565b60008160001904831182151516156133bf576133bf613474565b500290565b6000828210156133d6576133d6613474565b500390565b60005b838110156133f65781810151838201526020016133de565b838111156114335750506000910152565b60008161341657613416613474565b506000190190565b600181811c9082168061343257607f821691505b6020821081141561345357634e487b7160e01b600052602260045260246000fd5b50919050565b600060001982141561346d5761346d613474565b5060010190565b634e487b7160e01b600052601160045260246000fd5b634e487b7160e01b600052602160045260246000fd5b634e487b7160e01b600052603160045260246000fd5b634e487b7160e01b600052603260045260246000fd5b634e487b7160e01b600052604160045260246000fd5b6001600160e01b03198116811461138757600080fdfea870f1a91ab66a18174ae285449a007bea36a28441e5b44a847deb90f83e86eba2646970667358221220c8ce24b49f6e46d85d73934d37fd1102c827a9d7c603abc7cc4e00d77b08d6ae64736f6c63430008070033",
  "linkReferences": {},
  "deployedLinkReferences": {}
}